:10000000706000208D4200004DAB0000E142000016
:10001000E1420000E1420000E14200000000000077
:10002000000000000000000000000000514000003F
:10003000E142000000000000094000005DA6000051
:100040004D4200004D4200004D4200004D42000074
:100050004D4200004D4200004D4200004D42000064
:100060004D4200004D4200004D4200004D42000054
:100070004D4200004D4200004D4200004D42000044
:100080004D4200004D4200004D4200004D42000034
:100090004D4200004D4200004D4200004D42000024
:1000A0004D4200004D4200004D4200004D42000014
:1000B0004D4200004D4200004D4200004D42000004
:1000C0004D4200004D4200004D4200004D420000F4
:1000D0004D4200004D4200004D4200004D420000E4
:1000E0004D4200004D4200004D4200004D420000D4
:1000F0004D4200004D4200004D4200004D420000C4
:100100007BB972B90029BEBF00204FF0004106E064
:1001100008BF00281CBF6FF000414FF0FF3000F017
:1001200057B8ADF1080C6DE904CE002909DB002BAE
:100130001ADB00F04FF8DDF804E0DDE9022304B03B
:100140007047404261EB4101002B1BDB00F042F89D
:10015000DDF804E0DDE9022304B0404261EB410137
:10016000524263EB43037047524263EB430300F098
:1001700031F8DDF804E0DDE9022304B0404261EB30
:1001800041017047524263EB430300F023F8DDF86E
:1001900004E0DDE9022304B0524263EB43037047FD
:1001A00053B94AB9002908BF00281CBF4FF0FF31DE
:1001B0004FF0FF3000F00CB8ADF1080C6DE904CE43
:1001C00000F008F8DDF804E0DDE9022304B0704730
:1001D000704700BF2DE9F04F07468C460846099E40
:1001E00015463C461946002B40F0C6808242B2FAC2
:1001F00082F746D94FB1C7F1200E24FA0EFE00FA5D
:1002000007F3BD404EEA030CBC404FEA15481FFA05
:1002100085FEBCFBF8F9220C08FB19C309FB0EFA9A
:1002200042EA03439A4528D9EB1809F1FF3004D27A
:100230009A4502D9A9F102002B44A3EB0A03A4B208
:10024000B3FBF8F208FB123302FB0EFE44EA034450
:10025000A64514D92C1902F1FF3303D2A64501D9C2
:10026000931E2C44A4EB0E0443EA00401EB1FC4054
:10027000002334607360BDE8F08F4846DDE7134625
:10028000F0E702B9FFDE87BB831A01214FEA154E62
:10029000AAB2B3FBFEFC200C0EFB1C330CFB02F8D5
:1002A00040EA0343984563D9EB180CF1FF3004D2C0
:1002B000984502D9ACF102002B44A3EB0803A4B289
:1002C000B3FBFEFC0EFB1C330CFB02F244EA0344BE
:1002D000A2424FD92C190CF1FF3304D2A24202D909
:1002E000ACF102032C44A41ABEE7C7F1200C20FA9B
:1002F0000CF800FA07F324FA0CFCBD404CEA0302A8
:100300004FEA154EABB2B8FBFEFC110C0EFB1C8085
:100310000CFB03F941EA0040814504FA07F423D9B4
:1003200028180CF1FF3104D2814502D9ACF1020149
:100330002844A0EB090092B2B0FBFEFC0EFB1C00AF
:100340000CFB03F842EA004398450FD9EB180CF177
:10035000FF3204D2984502D9ACF102022B44A3EB40
:10036000080342EA014191E76146E2E76246F6E7A7
:100370006046A2E76346B6E7834205D90EB1C6E9F7
:1003800000700021084676E7B3FA83F181B9834211
:1003900001D3BA420AD8BC1A60EB030301209C4681
:1003A000002E68D0C6E9004C002164E70846F7E754
:1003B000C1F1200C8B4022FA0CF41C4302FA01F527
:1003C00000FA01F327FA0CF220FA0CFB4FEA144969
:1003D0001343BBFBF9F81FFA84FE09FB18BB1A0C88
:1003E00008FB0EFA42EA0B42924507FA01F73ED9A2
:1003F000A21808F1FF3004D2924502D9A8F10200F8
:100400002244A2EB0A029BB2B2FBF9F809FB1822C4
:1004100008FB0EFE43EA024296452AD9A21808F1CB
:10042000FF3304D2964502D9A8F10203224443EADD
:100430000040A0FB0593A2EB0E029A42CE469846DE
:1004400002D306D14F4504D2B9EB050E63EB040885
:10045000013886B1B7EB0E0362EB080707FA0CFC14
:10046000CB404CEA0303CF40C6E900379CE7404647
:10047000C7E74346DBE73146FDE600000000000029
:10048000032973B5144605461A467AD8042C06D8B3
:10049000022C70D8002C3FD06FF0850053E0062C62
:1004A000FAD15B6810683E4AD917C0FB0231012BB4
:1004B00071F1000222DB3B48181837A3D3E900236F
:1004C00041F10001FFF71CFE80B202281ED0042873
:1004D0001ED008281ED0102824D1032332492A69AF
:1004E00051F823101161526814691B013022232135
:1004F0002846A44602B0BDE8704060472B48181853
:1005000061F1000124A3D3E90023DBE70023E5E741
:100510000123E3E70223E1E71B881BB1244A0134EE
:100520000B2C02D16FF015000DE032F81410994237
:10053000F5D12E6973680DF107029B6820212846CA
:100540009847002801DA02B070BD9DF80720110716
:1005500023460CD4082C9FD002F00F0242EA03126B
:100560007368D2B2DB68202128469847EBE70A2C53
:1005700008BF0923F0E7214602B0BDE8704004F04F
:1005800057BF0C4B0C490D48C91AC908890141F0E5
:10059000020109F0BFFB7FE73AA3950000000000CD
:1005A00040420F009DD14A0054000020632EB5FF49
:1005B000E4C40000E4BE0000F4BE000061D100000D
:1005C00010B501F0D3FE094C002001F03FFF0028D8
:1005D000FAD123782BB900214FF4767008F0A2FAF3
:1005E000F2E70348BDE8104007F07EBFDE29002097
:1005F0000002002010B588B00D4C0E494FF4767201
:100600000023CDE9062300236FF00F02CDE9032379
:10061000CDE9013300934FF44072074B204607F0B9
:100620000BFE0649204608B0BDE810400BF084B927
:100630002002002070350020C105000010C5000018
:10064000044B01221A7004484FF0FF324FF0FF3381
:1006500007F06ABFDE29002000020020484B494A0B
:100660004948F0B5C3F80026484CC3F80426C3F83F
:100670000826C3F80C26C3F81026C3F81426C3F8BE
:100680001826C3F81C26424BE41AE408A40185B0DE
:1006900044F0030109F03EFB08F07AFEFFF7AAFFE1
:1006A0003C4800F08BF830B93A493B4844F001022D
:1006B00009F03DFBFEE7394807F0F0FB054602690B
:1006C0008168136823F0004313600B684FF488724D
:1006D0001F219847AB6801A95B682846984798B9DD
:1006E000019B002B10DB4FF08043D3F800340BB19B
:1006F000DB0709D52A4844F0030109F00BFB02F09F
:10070000EFFF284803F07EFB01A800F097FB264B83
:100710001B68834205D0254844F0010109F0FAFA2C
:10072000FEE744F003052A460399214809F0FFFA41
:100730002946204809F0EEFAFFF782FF69469DF846
:10074000080000F047F8009B039D1D44019B1E8993
:1007500009F086FFAF1900F05BFF4FF02002EFF3C6
:10076000118382F31188BFF36F8FAB5983F308882D
:100770007B689847104844F0010109F0CBFAFEE786
:10078000000001403546526E18C5000004BF00004D
:10079000E4BE00002CC500003FC5000059C50000A4
:1007A00060C50000D8BF0000BC0800207FC5000065
:1007B0009DC50000C7C50000E7C5000010B5044C8A
:1007C000236813B907F06AFB2060206810BD00BFE2
:1007D000B808002008B50B46014668B1074A084B27
:1007E00008489B1ADB089B0143F00103002209F033
:1007F000B2FA6FF0150008BD1860FCE7E4BE000017
:1008000004BF000005C600001FB5074A03460C469A
:10081000106801AA19460AF0C2FC18B9019B2360AE
:10082000029B636004B010BDB80800202DE9F04FB2
:10083000AFB0DDE93A5998463A4BDDF8E0B03C9F5D
:100840001E6812A8144600F0B7FE3DB1B9F1000FC2
:1008500004DD4A46294612A809F002F86389258971
:100860001D44E3684FF000091D444D453BD812A9D3
:100870000AA809F01BF827B120220AA938460AF075
:10088000CDF90023009342464FF6FF73214604A89A
:1008900008F07FFD20BB244D04460DF10A0302AA97
:1008A00003A904A808F0C1FD002819DB31D1BDF867
:1008B0000A30102BF1D1BDF80840202C2ED103991D
:1008C000234612AA404609F0A2FD48B9224612A9C1
:1008D0000AA808F0F5FD2E6886424FF00104DCD02E
:1008E0002FB0BDE8F08FDDF8E4A0A5EB09039A4531
:1008F00028BF9A4653465A464946404609F087FD66
:100900000028EDD15246594612A808F0A9FFD1445B
:10091000ABE7012C0CBF30460120E1E74FF0FF3080
:10092000DEE700BF00000020BC0800202DE9F041F8
:1009300086B00423DFF87080ADF800300D466F46B6
:10094000002617F8010B01A902F0CCF90446D8B92A
:1009500001988168102302AA103909F058FD044655
:1009600028B1019809F052FD0EE00126E9E71022B6
:10097000414602A80AF029F950B1019809F046FD54
:10098000002EF2D04FF0FF34204606B0BDE8F081D3
:1009900001980AF0D0FD0423A0F108012A4601982D
:1009A00009F035FD0446DCE720C4000070B5344B87
:1009B00088B00121044600201D6808F0E0FC06A96B
:1009C000C0B202F08FF9002852D1012108F0D7FC03
:1009D00007A9C0B204F12C0602F084F9002833D034
:1009E000E16B11F010013BD14FF480730193254B63
:1009F0000093CDE90311069B029132460846FFF7AA
:100A000015FF0546204BE26A06989A420CD1A28E49
:100A1000A36BD1438B4207D8134482689A4203D90F
:100A20001A4B1B68AB4220D08268002109F03EFDC2
:100A3000174B184A18491948D21AD208920142F0A5
:100A4000010209F074F90FE0079809F067FD054607
:100A5000079809F0DBFC334604F130029A420AD1D0
:100A60000699204608F024FE0125069809F0CEFCE0
:100A7000284608B070BD13F8011B8D42EED0AFE7D9
:100A800000000020DF2900203DB8F396BC080020BC
:100A9000E4BE000004BF000026C6000030C600000F
:100AA00073B50D46044600212846CDE9001108F033
:100AB000BEFDE8B1124E2368B34203D101AA20461D
:100AC00008F049FDE36AB34204D16A460121204699
:100AD00008F041FDDDE90032934288BF0193019B9C
:100AE000AB60019A2946204600F090FB02B070BD31
:100AF00005F10801FFF71AFFAB680193F1E700BFAA
:100B00003DB8F3962DE9F84FDFF870B01C4C1D4D41
:100B1000884691469A4600260B9B9E4201D30020B0
:100B20000FE00B9B154A9F1BB7F5806F28BF4FF452
:100B300080673B4606EB0A01404609F068FC10B1AD
:100B40000120BDE8F88F0A993B465A46711848467D
:100B500009F079FC0028F3D1C4F800563E44C4F8EB
:100B60000456C4F80856C4F80C56C4F81056C4F815
:100B70001456C4F81856C4F81C56CDE720090020B6
:100B8000000001403546526E2DE9FF419F4B04465F
:100B900060220F4600211E680AF04BF89C4B6362EE
:100BA00000219C4B2365084608F0E9FB04F1200175
:100BB000C0B202F097F80121002008F0E0FB04F138
:100BC0004C01C0B202F08EF8204608F005FD054643
:100BD00098B900221146204608F0A5FC054668B3E6
:100BE0008D4A8E4B8E48D21AD208920142F00202F0
:100BF000002109F09CF801239FE0884B864A894830
:100C0000D21AD208920142F002024FF4807109F028
:100C10008EF801239D4284F85830DAD194F8583088
:100C20008DF80730042B00F28B80012B00F28F80AF
:100C300000F0A280FF2384F858309DE0204600F0A9
:100C4000C3F90028D7D0684608F0E8FC694620467A
:100C500008F083FD48B1704A704B7348D21AD2082D
:100C6000920142F002022946C3E7684608F0DFFC21
:100C700080F001016A46C9B2204608F054FC0246E1
:100C80000028ADD1684608F0D2FC054690BB694605
:100C90002046FFF705FF9DF8073084F85830033BE6
:100CA000012B06D8284608F0A6FD10B1FF2384F8D2
:100CB00058309DF80730023B022B11D8002008F075
:100CC00088FD68B1FF2384F858305349534B574887
:100CD000C91AC908890141F0010109F01BF8FEE7B2
:100CE00094F85830FF2BF0D06A460021204608F0D7
:100CF0001AFC80E79DF80730012B14D1104606F04E
:100D0000EFF8831E022B05460AD82046FFF74EFE59
:100D1000474B1B68984203D001280CBF01250525CD
:100D200084F858507AE72046FFF740FE404B1B6896
:100D300098420CBF9DF80730052384F858306DE7C2
:100D4000052B7FF477AF002008F055FD11E06946D0
:100D50002046FFF7A5FE94F85830DA1E012A1AD86B
:100D6000002008F048FD00287FF464AF002008F060
:100D700030FD00287FF45EAF94F85830FF2B0DD182
:100D80002549264B2948C91AC908890141F00101A2
:100D900008F0C0FFFEE7022BEED1E7E7012B12D1EE
:100DA0002268244B9A4223D110220021684609F080
:100DB00040FF236A5A783A715B68BB601C4B3C6009
:100DC0001E68002507E06A460021204608F0ABFBBC
:100DD00005460028E4D0E06C09F018FB206A09F011
:100DE00015FB002D14BF2846304604B0BDE8F08145
:100DF0000A4A094B10489B1ADB089B0143F0010388
:100E00000022214608F0A7FF0325E4E700000020A8
:100E1000200D00202015002004BF0000E4BE0000CB
:100E200090C6000053C60000B7C60000DCC6000034
:100E3000BC0800203DB8F396E3C6000008B50146A3
:100E40000148FFF7A1FE08BDC008002073B5164693
:100E50001C4633B3436A5D686379012B15D101BB2E
:100E60001F4B22681B689A4298BF0025002008F09B
:100E700086FA01A9C0B201F035FFF0B10125019851
:100E800009F0C4FA284602B070BD022B09D12368CC
:100E9000012B08D9124A1268934202D8B1FA81F1A3
:100EA00049090025E2E7FCD10029DFD00129F8D16A
:100EB0002179023918BF0121F3E72946019820233F
:100EC000324609F0A4FA05460028D7D1002CD6D026
:100ED000356804482D1A18BF4FF0FF35CFE700BF23
:100EE000040000203DB8F3962DE9F04F074685B089
:100EF0000C4601460020164608F0E9FA051E58DBAC
:100F00003846E46D08F0F0FA5FFA84F905F1FF382D
:100F100009FB08084FF0000A4FF0010B4FF0FF34B7
:100F2000CDB9BAF1010F09DD2449254B2548C91A6D
:100F3000C908890141F0010108F0ECFE631C06D0EC
:100F4000FF2C2ADC013440F201133460B3802846C0
:100F500005B0BDE8F08F6B1E00930DF10F02012369
:100F60004146384609F053FA031E019323DB012260
:100F70000DF10F0138460AF0EFFA019B40B15B45D5
:100F800001D00AF1010A009DA8EB09089B46C7E7BA
:100F9000B4F1FF3F08BF2C46F5E70223A4F58074A7
:100FA0007371631004F00104013301343360347150
:100FB000CDE70725CBE70125C9E700BF04BF000047
:100FC000E4BE000003C70000816A426D914238B55B
:100FD0000ED0531C8B420BD01D491E4B1E48C91A04
:100FE000C908890141F0020108F094FE002038BDD3
:100FF000B1F5807F28D91649164B1848C91AC90877
:10100000890141F00201EFE7446A056D04EBC30476
:1010100005EBC30564686D68AC4208D00C490D4B04
:101020000F48C91AC908890141F00201DCE7013300
:101030009A42E9D1914205D9436A03EBC20253684F
:10104000A342EBD10120D2E700231C46F0E700BF0A
:1010500004BF0000E4BE000021C7000054C7000028
:101060007EC7000010B58AB001A904200AF0D7FAA3
:101070002F4C304B9DF804102F4A0592E41AE408D7
:10108000A401012944F0030347D02C4A2C4803292A
:1010900008BF024606929DF8052007929DF806209B
:1010A00008929DF807202748099205A9052208F013
:1010B00087FE03A902200AF0B2FA9DF80C10224A1A
:1010C0000592012944F0030329D01C4A1C48032936
:1010D00008BF024606929DF80D2007929DF80E204B
:1010E00008929DF80F2009921648052205A908F0DC
:1010F00067FE9DF80430012B13D19DF80630032BB9
:101100000FD19DF80C30012B0BD0104844F0030197
:1011100008F000FE02200AB010BD0D4ABAE70C4AE2
:10112000D8E70C4844F0030108F0F4FD0020F2E792
:1011300004BF0000E4BE0000A5C70000B9C700005E
:10114000B3C70000C2C70000FEC700000EC8000001
:10115000BDC7000028C8000070B54B681446234A7C
:1011600003F0FF23934288B006460D4639D10B6841
:10117000012B36D101A9204605F062FE1C4A1D4B09
:101180009DF804109B1ADB081B4A03929B0101295E
:1011900043F0030327D0194A1948032908BF024620
:1011A00004929DF8052005929DF8062006929DF870
:1011B000072007921348052203A908F001FE9DF8B5
:1011C0000430032B0DD12146304608F071FA204639
:1011D0000AF01CFAA968204608F096F9204605F0A6
:1011E00021FE08B070BD084ADAE700BF0001000424
:1011F000E4BE000004BF0000FEC70000B9C7000045
:10120000B3C70000C2C70000BDC700002DE9F04F02
:10121000436A0C465E6889B00546012100233344C9
:101220009A42084601F10101F9D8DFF8AC81C8F80B
:101230000000204608F0FBF9E8B1E86D08F042F93B
:10124000AB6A0022013B3244824201D2013BFAE701
:10125000D8F800209A420ED3604B61496148C91A00
:10126000C908890141F0020108F054FD0123E3712E
:1012700009B0BDE8F08F06A9042001F033FD07A9ED
:10128000022001F02FFD079A21462846FFF764FF50
:101290006379012B06D1D8F80070D8F8003097B9DF
:1012A000012323604FF0020363710127D8F8003057
:1012B000DDF818A09F4244D9504609F0A7F80798D6
:1012C00009F0A4F8D4E7216801335B1A9F4236D8AD
:1012D0006A6ADDF81890136852F8370002EBC7020B
:1012E000012952F8082CA0EB030AA2EB030B12D140
:1012F000E268079B022A0AD049462846039308F071
:10130000D7F922464946284608F008FA039B1946B1
:10131000284608F0CDF932465146484608F0C6F94D
:101320005B464A464946CDE900A62846FFF7EAFB58
:101330002146284608F088F9236801332360013FDD
:10134000ABE723689F4245D36A6ADDF81CB052F8C8
:1013500037100491FB0011680391083B296DC858B0
:101360000968A0EB01092179012931D1D158039BEA
:101370003246C91A5046059108F098F9059900912E
:101380004B465246594601962846FFF7BBFB21467D
:10139000284608F059F94FF00203237132464946B6
:1013A000584608F083F9DDE9032351469B1ACDE93D
:1013B00000965A462846FFF7A5FB2146284608F026
:1013C00043F92368013323604FF00103237101E0E7
:1013D0000229E3D0013769E704000020E4BE0000E1
:1013E00004BF00003AC800002DE9F04F9DB003682B
:1013F00002934368039383680493C3680593036966
:1014000006934369079383690893C3690993DDE9E8
:1014100007CBDDE905E2DDE902469846DFF890A159
:10142000049B00930027CD590CAB2DBADD515AF81F
:10143000043B05EB03094FEAF22585EAB21585EA7C
:1014400072654D442BEA020302EA0C0983EA0903A0
:101450002B44009DDDF80090434475404FEA7438FA
:1014600088EAB408254006EA090985EA090588EAF8
:10147000B4580437A844402F03EB0E054344DDF86D
:1014800000E0D84640F085804A490A914FF0100AA2
:1014900051460AF1010A0DF1700E0AF00F070EEB2A
:1014A000870701F00F0957F8407C01974FEAB748CA
:1014B00088EAF71801F10E0707F00F070EEB870710
:1014C000093157F8407C4FEAF74E8EEA774ECDF857
:1014D0002CE001F00F010DF1700E0EEB89090EEBFF
:1014E000810159F840EC51F8401C7144DDF804E0EA
:1014F00088EADE08DDF82CE041448EEA972E0A9F48
:10150000714449F8401C57F804EB0A974FEAF52953
:1015100005EA020889EAB5192CEA050787EA0807EF
:1015200089EA75694F447744394459444FEA73371F
:1015300084EA060B0BEA030B87EAB30704EA060EFC
:10154000DDF8008000968BEA0E0E87EAB3577744E9
:10155000BAF1400F8844E346394421D1029F0F4439
:10156000039907601944049B416023448360059BF1
:101570003344C360069B43440361079B2B44436190
:10158000089B13448361099B6344C3611DB0BDE89C
:10159000F08FE3460096944626462A461C4642E7CC
:1015A000944626462A461C4645460B4670E700BF31
:1015B000E0BF000020C0000010B50446C8B1702292
:1015C000002108F0D2F90B4B0B4A0C490C48C4E936
:1015D00000230C4BC4E902130B4BC4E904030B4B6F
:1015E000A36103F17453A3F52303A3F69243E361CC
:1015F000012010BD85AE67BB67E6096A72F36E3CD9
:101600007F520E513AF54FA58C68059BABD9831FCD
:10161000144A4FF0FF3301215160C2F84833C2F839
:10162000083302F5C0425160C2F84833C2F80833AB
:1016300002F598325160C2F84833C2F80833A2F577
:1016400008320021C2F80015C2F8083302F518323A
:10165000C2F80015C2F808334FF08042C2F80833D0
:10166000704700BF00B000402DE9F04305460798E1
:1016700010B91060BDE8F0830324B0FBF4F404EB70
:101680004407B84218BF0134B4F1804F05D34FF07E
:10169000FF3313606FF00B00ECE7A40001348C42C1
:1016A00000D80DB91460F5E7DFF8BCE02E46002441
:1016B000BC4231469C4606F1040603F103032CD3D9
:1016C000844225D29CF80060274F0134844238BF01
:1016D0009CF801304FEAA60C28BF002317F80CC075
:1016E00081F800C0844207EB131C3CBF9B0003F051
:1016F0003C034FEA061606F0300638BFFB5C1CF8C8
:1017000006604E7028BF3D238B703D23CB700431A3
:101710004D1B002015600870ACE713F803CC13F8DC
:10172000021C13F8018C4FEAAC094FEA0C1C1EF89E
:10173000099006F8049C0CF0300C0EEB111989008E
:1017400019F80CC006F803CC01F03C010EEB981C14
:1017500008F03F081CF8011006F8021C1EF80810DB
:1017600006F8011C0334A3E7E4C800002DE9F043A8
:101770008C46079EDFF82081002107460D4608466B
:10178000B5420AD32E4604E00135AE420EF1010EF9
:1017900005D190BB1060BDE8F0834FF0000E5C5D9A
:1017A000202CF1D0AE42F4D0A6EB0509B9F1010F1F
:1017B00013D00D2C11D103EB050999F80190B9F163
:1017C0000A0F18D0BEF1000F04D13D2C07D1013112
:1017D000022907D96FF01500DDE70A2CF1E714F0B4
:1017E000800FF7D118F804407F2CF3D03F2C01D89C
:1017F0000029EFD101300135C2E74FF0060E00F0AD
:101800000705C4080EFB05F50EFB04F40735641A42
:1018100004EBD5048FB164450FD80024DFF878E0DD
:10182000DFF878809C461E4403203B4621466645EF
:1018300007D1DB1B13600020ADE714606FF00B00D5
:10184000A9E71CF8019BA9F10A05EDB2162D03D8F2
:1018500028FA05F5ED07EAD41EF809500131402DAC
:1018600008BF013805F03F05042945EA8414DED19C
:1018700078B1210C0128197002D101330021D6E77B
:1018800002284FEA1421597016BF9C7002330333AB
:10189000F4E70146CBE700BF64C800000900400040
:1018A000014B1860704700BF0800002030B585B0BC
:1018B000CDE901010446002501A90548039500F082
:1018C000E9F8DDE902309842B8BF255405B030BDD3
:1018D000079A00002DE9F84FB0F8189019F00808A1
:1018E000044693460DD001290CBF49F0100949F078
:1018F0002009A0F818908BF31188BFF36F8FBDE813
:10190000F88F09F00709022907D1204608F0A8F846
:101910000028F0D00128238B4ED16769218B002F3E
:1019200015DA256821F00701C4E9008841F00101BA
:1019300021830026218B01F0070ACA4502D0A36843
:10194000002B5AD10DB9002E71D0002356E001F0C2
:1019500007035A1F012A1ED821F00701062B25680C
:1019600089B2C4E900880AD13DB1638B2A46126866
:1019700001339BB2002AFAD1638341F00201218333
:10198000204608F06DF806460028D3D0238B43F09C
:1019900020032383CDE7042B0CD121F0070189B26A
:1019A0002183204608F05CF805460028C1D041F0AC
:1019B000200121830025BCE7032809D1226923F0F7
:1019C0000703166843F00603238300252F46B1E77B
:1019D000042806D1226923F00703566843F0040364
:1019E000F2E7052806D1226923F00703966843F041
:1019F0000503E9E700252E46E8E7012341F0080149
:101A000021838BF31188BFF36F8FFBB985BB16B1B0
:101A10001F492046B0474FF02003EFF3118B83F3AB
:101A20001188BFF36F8F238B23F008032383238B4D
:101A3000DA0625D523F0100323830121B4F818908A
:101A400009F0070900297FF45EAF54E7A168002977
:101A5000DCD0D1F80090D1F804B03B465246204685
:101A6000D847B9F1000FD1D04946D9F80090F2E734
:101A700029463B46524620462D6808F00DF8C5E73A
:101A800013F020011EBF23F0200323830221D5E79A
:101A9000C59A00002DE9F04F91B08B460290924616
:101AA0001C4600259AF8000008B928465FE325285F
:101AB0000AF1010707D0029B594698470028C0F257
:101AC0005683013512E2182200210AA809F0B1F864
:101AD0009AF80130252B78D000221046964694467D
:101AE0001646394617F8013B2B2B00F09D8000F27B
:101AF0009480202B00F09B80232B00F09B802EB144
:101B00009DF8306046F004068DF83060BCF1000F9F
:101B100005D09DF8306046F008068DF83060BEF1C3
:101B2000000F05D09DF8306046F010068DF830604B
:101B300028B19DF8300040F020008DF830002AB127
:101B40009DF8302042F040028DF830209DF8302082
:101B500002F04400442803D16FF386128DF8302040
:101B60009DF830202A2B42F080028DF830207BD166
:101B70009DF8312042F001024B1C8DF831201A787B
:101B80002E2A9DF831200CBF0121002161F3410272
:101B90008DF8312074D15A782A2A6AD00133002175
:101BA0000A26184610F8012BA2F13007092F40F23F
:101BB0008E809DF830200E91C2F3400040EAD17132
:101BC00061F341028DF830205AE00AF102078DF8E6
:101BD00033309DF83130D90740F1498154F8049BE6
:101BE000B9F1000F07DA9DF8302042F004028DF8B9
:101BF0003020C9F100095A0740F1428154F8048BA2
:101C0000B8F1000F80F241819DF831306FF341034C
:101C10008DF831304FF0FF3837E12D2B0CD0302BC1
:101C20007FF46DAF01225CE74FF0010C59E74FF0F4
:101C3000010E56E7012054E7012652E70CFB020291
:101C4000303A33461E4616F8010BA0F13007092F33
:101C5000F4D9994293D09DF830100D92D20F62F3CF
:101C600041018DF830108AE70B4600224FF00A0C34
:101C7000E8E79DF8312042F004028DF8312002336C
:101C80001F4617F8012B6C2A41D025D8682A2BD083
:101C90006A2A46D04C2A4CD01F4617F8012B9DF8D3
:101CA00031308DF83320782A00F2D980572A4DD868
:101CB000412A03D0453A022A00F2D1809DF8323001
:101CC000042262F302038DF8323001239EE006FB0A
:101CD00001213039034664E7742A26D07A2ADBD101
:101CE0009DF8313006220DE05A78682A9DF831209F
:101CF00006D1012161F3C6028DF831209F1CCCE78B
:101D00001346022262F3C6038DF83130C5E75A78D4
:101D10006C2A9DF8312001D10421EBE71346032200
:101D2000F0E79DF831300522ECE79DF831300722CD
:101D3000E8E7BDF8303023F4F04323F0020343F426
:101D4000804343F00203ADF83030A6E7A2F158011A
:101D5000202900F2848001A050F821F0211E00000B
:101D60005F1E00005F1E00005F1E00005F1E00007F
:101D70005F1E00005F1E00005F1E00005F1E00006F
:101D8000BD1C00005F1E0000211E0000E11D0000C0
:101D9000BD1C0000BD1C0000BD1C00005F1E00003B
:101DA000E11D00005F1E00005F1E00005F1E0000BE
:101DB0005F1E0000291E0000211E0000451E0000BD
:101DC0005F1E00005F1E0000451E00005F1E000039
:101DD000211E00005F1E00005F1E0000211E00008B
:101DE0009DF83210012003F0780360F30201402BCC
:101DF0008DF8321002BF9DF8301041F001018DF8CE
:101E00003010632A31D1003B18BF01239DF83020E8
:101E1000C2F340010B4363F341028DF83020D8E652
:101E20009DF832100220DEE79DF8322003F078039F
:101E3000A3F14000032161F3020243428DF83220F6
:101E40004341E3E79DF83220032113F0780F61F35B
:101E500002028DF8322014BF01230023D6E79DF83B
:101E6000303043F001038DF830300023CEE79DF988
:101E70003020002AB4BFDDF834904FF0FF39BAE6C5
:101E80009B077FF5C7AEDDF838809DF83110002341
:101E9000CDE90D339DF8323003F00703012BC1F378
:101EA000C30138D1CB1E042B22D8DFE803F003098D
:101EB0000921210054F8043BDA17CDE90A3206E083
:101EC000073424F00704F4E80223CDE90A239DF83F
:101ED000303013F0030656D002983B46524659461E
:101EE00007F0B9FE0028C0F242810544BA46D9E5A0
:101EF00054F8043B01294FEAE372CDE90A3205D1D7
:101F00009DF828300A9300230B93E0E70229DED1E5
:101F1000BDF92830D0E7022B23D1CB1E042B13D8D8
:101F2000DFE803F0030A0A12120022680A92002373
:101F3000201D0B930446CAE7E01D20F00700F0E8DF
:101F40000223CDE90A23F5E754F8043B0A9301295B
:101F50004FF000030B93D3D00229B8D1BDF828303D
:101F6000D0E7042B09D1E31D23F0070303F1080494
:101F7000D3E90023CDE90A23A9E7032B04BF54F8D2
:101F8000043B0A93A3E79DF833007828AED8622873
:101F900022D825283FF48FAD5828A7D10DF126036C
:101FA0000093DDE90A0104AB0CAA07F00EFE82469D
:101FB000B8F1000F0DF126000CDB9DF83020A0EBEE
:101FC0000A036FF3861298458DF8302002D9A8EBEA
:101FD00003030D9380463DE06338152886D801A29F
:101FE00052F820F065200000C9200000ED1E00001E
:101FF000ED1E0000ED1E0000ED1E0000C9200000D7
:10200000ED1E0000ED1E0000ED1E0000ED1E0000A4
:1020100023210000F1200000F5200000ED1E00004B
:10202000ED1E00003D200000ED1E0000F12000002C
:10203000ED1E0000ED1E0000F1200000B8F1000FC1
:10204000DDF828A00ADB4146504608F0A9FD0AEB5E
:1020500000080026BAF1000F0CD147E7504608F0FF
:1020600098FDF4E70A9B8DF8103000260DF1100A58
:102070000DF11108A8EB0A0306B101339DF83220D7
:10208000D00668D5023352060D9948BF0E9A0B440C
:1020900048BF9B18B9F1000F76DD9DF83020A9EB01
:1020A0000309C2F38003039353076DD4500661D52F
:1020B00046B1029B594630469847002857DB039BA0
:1020C00001351E46302356E01E070FD413F01006CC
:1020D00018BF2026DDE90A23002BBFF65FAF52426E
:1020E00063EB4303CDE90A232D2657E72B26F1E7BF
:1020F000002653E70A9840B30DF1260300930CAA7B
:1021000004AB002107F061FDBDF8323003F0EF03AE
:1021100043F4F04343F010038246ADF8323000261A
:1021200046E70A9B07293FF6E1AEDFE801F00C0421
:10213000060C08080C0C1D70D8E61D80D6E6EA17C0
:10214000C3E90052D2E61D60D0E6DFF8C8A006461B
:102150000AF105088EE7110748BF013393E71846D7
:1021600003935946029B98470028039B04DA11B059
:10217000BDE8F08F20234D444A46002AA5EB090113
:1021800009F1FF39EBDC0D4636B1029B594630466A
:1021900098470028EBDB01359DF83230D90601D491
:1021A0001A0706D5029B5946302098470028DEDBE7
:1021B00001359DF83230DB0607D59DF83300029BD0
:1021C000594698470028D2DB01350D9E2E44731BDB
:1021D000002B16DC029843465246594607F03BFD59
:1021E0000028C4DB0544A944A9EB0503002B7FF7B5
:1021F0007DAE029B5946202098470028B7DB013569
:10220000F2E7029B5946302098470028AFDB0135A2
:10221000DDE700BF24C9000008B504464FF02002E6
:10222000EFF3118382F31188BFF36F8F08F018FA70
:10223000204602F0ADFB034807F0F8FB01F096FFE3
:10224000FCE700BF2AC9000010B50B4B00221A7032
:102250000A4B0B4A1A604FF4004000F08FFC00F06C
:1022600041FA084807F00EFDBDE81040064907484E
:102270000423282209F016BBE02A00200C000020CD
:10228000C39C00002C1D0020B0690020341D0020DC
:1022900010B54FF02003EFF3118483F31188BFF3DF
:1022A0006F8F044807F0FEFC84F31188BFF36F8F33
:1022B00010BD00BF2C1D0020064BBFF35B8F53E801
:1022C000002F013243E800210029F8D1BFF35B8FD2
:1022D000704700BF241D00200020064BBFF35B8F1A
:1022E000024653E8000F43E800210029F9D1BFF36B
:1022F0005B8F7047241D0020F8B5FFF7EDFF0A4CF7
:102300000A4D2D1B07462D110026AE4200DBF8BDFD
:1023100063685B792BB123681B6913B1394620468A
:10232000984701361034F0E74CBF00005CBF000056
:10233000044A054B9B1AB1EBD30F34BF52F831005E
:1023400000207047E4BE00004CBF0000054A43680F
:10235000801A001101220130196018715A71024B64
:102360001A7070474CBF0000DF2A002070B5124B76
:10237000BFF35B8F53E8005F6A1C43E8002100292C
:10238000F8D1BFF35B8F2DB90C4C0D4E361B3611B7
:10239000B54200DB70BD237B53B123689B690BB151
:1023A000204698476368042219682046FFF7CEFF4D
:1023B00001351034ECE700BF281D00204CBF0000A1
:1023C0005CBF0000164B984237B5044602D3154B4C
:1023D000984220D314480022002301A905F0CEFE24
:1023E0000546D8B90122019BBFF35B8F53E8001F5C
:1023F00043E800200028F9D1BFF35B8F0198214604
:102400001F22043008F0B3FB019C7E2384F82330A4
:1024100084F824500434204603B030BD034CFAE75E
:10242000ECBB000014D90000341D002053C900008B
:1024300048B1054B984205D3A03398422CBF0020E9
:102440000120704700207047B06900202DE9F04F4F
:10245000474B1B7885B0044603B900B3FFF718FF5C
:10246000054678B1BFF35B8F424B53E8002F013A2A
:1024700043E800210029F8D1BFF35B8F9CB12846C7
:1024800007F046FD2CB93C4B1B68002B01DDFFF724
:1024900033FF3A4807F004FC041E18BF012420460D
:1024A00005B0BDE8F08F364B1B78E3B92B7ADB071C
:1024B00019D407F040FD0746284607F007FD0146FE
:1024C000384607F002FCDFF8BC802F4BDFF8BCB0C9
:1024D000A3EB0803DB0803932D4BA3EB080306468D
:1024E0004FEAD30A36B92B4E2B4FBF1B3F114FF08B
:1024F00000083AE0B6FA86F1C1F11F0949462846BC
:1025000007F0E7FC254B9842014602D3244A90424B
:102510001AD30846FFF78CFF0246A8B9214B99420F
:1025200012D06B890399C3F389138B4238BF58F8D3
:1025300033204FEA8A1343F00103ADF800304946D7
:102540003B46584607F020FC012303FA09F126EA2E
:102550000106C7E773685B7923B1336829465B6876
:102560003046984708F101081036B845F2DB86E797
:10257000DF2A0020201D0020241D00202C1D00200B
:10258000E02A0020E4BE00004CBF00006DC900003E
:10259000FCBE00004CBF00005CBF0000ECBB0000B4
:1025A00014D9000053C90000284B37B51B6841817E
:1025B00004469847E0604FF02003EFF3118583F362
:1025C0001188BFF36F8F2248214607F05FFB85F328
:1025D0001188BFF36F8FBFF35B8F1E4B53E8002F43
:1025E000013243E800210029F8D1BFF35B8F1A4A7A
:1025F000127882B14FF02003EFF3118483F3118836
:10260000BFF36F8F0020FFF721FF84F31188BFF322
:102610006F8F03B030BD114A1B681268002AF8D0D2
:10262000012B07D1002200230D48CDE9002306F03D
:1026300069FCEEE70A2BECD1094809F0B3FA094826
:1026400003B0BDE8304005F04FBF00BF0C000020D4
:102650002C1D0020201D0020E02A0020501D0020FD
:10266000A002002010020020F8B50E4F3D7875B989
:102670000D4C0E4EFFF77AFE361B3611B54207DBC6
:102680000020FFF7E3FE0028FAD101233B70F8BDDC
:1026900063685B791BB1236820465B699847013505
:1026A0001034EBE7E02A00204CBF00005CBF0000C4
:1026B00007B504380190BFF35B8F50E8003F5A1E06
:1026C00040E800210029F8D1BFF35B8F012B03D133
:1026D000034801A909F001F903B05DF804FB00BF4C
:1026E000341D00202023024902481A4609F0DAB8B6
:1026F000506A0020541D002037B50023094D019376
:102700000120FFF7A3FE0446FFF7D6FD00220023B9
:1027100001A9284605F032FD08B1002CF0D101983E
:1027200003B030BD541D002007B5002301930748B6
:102730000022002301A905F021FD10B1FFF7DCFF05
:102740000190019803B05DF804FB00BF541D002008
:10275000F0B5037A85B0DC0701901ED4457A2D09C7
:102760001BD0002426460198314607F0B2FB0746ED
:10277000FFF75EFE70B134B9019B2946186907F076
:10278000A4FA044648B124FA06F3D90702D538461C
:10279000FFF78EFF0136AE42E5D3019B1A7A92070E
:1027A00004D55B69084C0393039B2BB9064801A928
:1027B00009F093F805B0F0BD1D6803A9204609F0A3
:1027C0008CF80395F0E700BF541D00200EB403B54C
:1027D00003AB014653F8042B04480193FFF75AF961
:1027E00002B05DF804EB03B0704700BF97A3000090
:1027F0002DE9F0471D46089B1746DA0604460E46AB
:1028000005D499064CBF2A492A49FFF7DFFFDFF8B4
:10281000A8904FF00008A8452ADBDFF8A080DFF879
:10282000A090DFF894A00025BD422FD2725D4946EA
:102830002046FFF7CBFF0135102D20D12149DFF8CD
:102840007880DFF884902046FFF7C0FF0025AF4274
:1028500028D9725DA2F120035F2B28BF2E224946A2
:102860002046FFF7B3FF0135102D14D1BDE8F087E6
:1028700049462046FFF7AAFF08F10108CBE76A079F
:10288000D2D151462046FFF7A1FFCDE74146204671
:10289000FFF79CFFCFE76B07D9D141462046FFF7F2
:1028A00095FFD4E741462046FFF790FFDBE700BFE6
:1028B000B1C90000B0C90000BBC90000B9C900001F
:1028C000B3C90000BDC90000BFC900002DE9F04F29
:1028D00087B011F0020605929DF84080BDF948903E
:1028E00007461A4601F0010A01F0080506D011F06A
:1028F000440F38D13349FFF769FF0646BAF1000F9C
:102900000AD0314B314953F82820314B3846002A40
:1029100008BF1A46FFF75AFF3DB12E4B2E4953F818
:1029200028203846FFF752FF0546B9F1000F16DBA5
:10293000059B002B43D0012303FA08F8274B284CB2
:1029400018F0100F18BF1C4649469DF84400FFF7C9
:10295000EFFC214602463846FFF738FF0544A81928
:1029600007B0BDE8F08F1F4B196831B31E4B4FF411
:1029700061661B68B2FBF3F34FF47A7BB3FBF1F4AF
:10298000B4FBF6F206FB124601FB14340BFB04F415
:102990004FF03C0CB4FBF1FEB6FBFCF301FB1E4414
:1029A0000CFB13660BFB04F40096B4FBF1F1CDE9CC
:1029B00001E10E49FFF70AFF9FE708469DE7084C33
:1029C000C2E700BFD0C90000E0C000004CD000004A
:1029D000C2C90000F4C00000F5C90000CCC9000065
:1029E000C7C90000701D0020741D0020D9C9000057
:1029F00038B50C46E107054603D5084A0849FFF7F4
:102A0000E5FEE20608D4A30628464CBF0549064960
:102A1000BDE83840FFF7DABE38BD00BFC2C90000CC
:102A20004CD00000B1C90000B0C900002DE9F0474A
:102A30008B7A13F007088AB005460E46174622D057
:102A40000A7A4989C3F3C203C1F38911D243CDE99C
:102A500000830291F36802F001023946FFF736FF66
:102A60008146347AE44314F001040ED029463046FE
:102A700007F027FBB8F1000F2BD042463946284615
:102A8000FFF7B6FF25E0C146EBE7B8F1000F26D10E
:102A90002746EB68069306AA3B46A968304607F02E
:102AA000FCFA069A6B681A603AB1AB68134413F8E3
:102AB000014CA4F10A035C425C41284607F05EFC2D
:102AC000069B1F44002BE4D11CB114492846FFF794
:102AD0007DFE28460AB0BDE8F04707F04FBC3046FF
:102AE00007F029FA0E4902462846FFF76FFE4FF01D
:102AF000100A05AA234606A93046CDF814A007F00F
:102B0000CCFA059A002AB8D04B46009706A9284669
:102B1000FFF76EFE059B1C44EBE700BF35CB0000C2
:102B20004CD0000073B542F20F738B4228BF0B46A6
:102B300005680F4A04460521684606F084FF63686D
:102B40000C495B6806460B22284607F0ADFA63681D
:102B50003246694628465B6807F0A6FA636806496C
:102B60005B681B22284607F09FFA02B070BD00BFC9
:102B7000D9D1000037CA00001BCA0000084A10B5AE
:102B80000123084C13600021A04204D801B1136056
:102B9000054B186010BD40085B000121F4E700BF41
:102BA000741D002040420F00701D0020014B0122C7
:102BB0001A707047F12A0020024B034801221A7054
:102BC00007F0DCBBF22A002024C100000148FFF717
:102BD000A9BF00BF24C1000010B508460C4607F08D
:102BE00068F9054821460F22FFF720FF2046BDE87F
:102BF000104007F08DB900BF24C10000054B1B78C1
:102C00001BB141F2883008F0C9BFA420002105F0B3
:102C100089BF00BFF22A00202DE9F047DFF88C9031
:102C2000DFF88CA080460F46042499F80050CDB9F7
:102C30004FF0FF334FF0FF32504605F09BFB3A4612
:102C40004146284605F084F80646504605F00AFC41
:102C5000184DFEB101232B7099F800306BB938463E
:102C6000BDE8F0873A464146002005F071F8064677
:102C7000EEE75CB92C704FF0FF34002005F0E4F86B
:102C80000028ECD02B78002BF3D1E8E7013CFFF7CC
:102C9000B5FFF2E72B7813B1013C04D12C702B78EF
:102CA000002BC2D1DBE7FFF7A9FFF8E7F22A0020EB
:102CB000D8010020F12A0020084B30B51C68084BD1
:102CC00001461A6800239C4201DC002030BD1046FA
:102CD000103205788D42F9D00133F4E72CC20000A0
:102CE00014000020084B1B6810B50C462BB1FFF7F1
:102CF000E3FF28B12060002010BD6FF00C00FBE75F
:102D00006FF00100F8E700BF1400002030B589B073
:102D10000C4615460190FFF7CFFFB8B14368029308
:102D200083682268C068CDE903350023CDE9062316
:102D3000059307F04BFB60B1074901AA08F033FA8D
:102D4000079808B9059B236009B030BD6FF01500E6
:102D5000FAE76FF01200F7E7D1A30000F8B50546D7
:102D60004FF02003EFF3118683F31188BFF36F8FC9
:102D7000094B1C685CB1094FD4E90132002D08BF32
:102D800013460BB1387898472468002CF4D186F3A9
:102D90001188BFF36F8FF8BD8C1D0020941D00209B
:102DA0001FB50F4B1A68BAB901221A600D4A07CA3B
:102DB00001AB83E807000C4A4AB193E8070007F02B
:102DC00057FF002005B05DF804EBFFF7C7BF82F3A3
:102DD0001188BFF36F8FF4E705B05DF804FB00BF07
:102DE00010000020941D002071AC0000F0B589B0E7
:102DF0006E4601460546304607F099FB96E8070007
:102E0000174C84E807002078274638B3154B00217B
:102E100019606B1C0DD0144816464FF4004C134A31
:102E20000023E6FB0C01FDF7BBF90121281A08F08D
:102E300097FE05F0F9FB0120FFF790FF97E80700E8
:102E400005AB83E807000A4A1AB193E8070007F0C8
:102E5000FCFEFFF7A5FF05F09FFC207809B0F0BD50
:102E6000941D0020100000203F420F0040420F0040
:102E70004BAC000010B5044C2046FEF711FD204677
:102E800001F068FD002010BD8D2E00002DE9F341FA
:102E9000DFF85C80174E8DF80700044603254FF0DD
:102EA000FF334FF0FF32404605F064FA01220DF186
:102EB0000701002004F098FF0746404605F0D2FACB
:102EC0002FB101233370204602B0BDE8F081337882
:102ED000002BF8D0013D08D008F028FD0028DED1F5
:102EE0000021422005F01EFED9E73570EBE700BF58
:102EF000D8010020F32A0020084B70B5C31A0D46F4
:102F000007499B10044659430648402207F030FB0E
:102F10002B4601462046BDE870401847B41D0020EE
:102F2000B76DDBB674BC000073B50C4C0C4A402383
:102F3000041B00930D460B460A49A4106143064644
:102F4000094807F042FB011E05DA30462B4602B065
:102F5000BDE87040184702B070BD00BFB41D00202E
:102F600039A60000B76DDBB674BC0000002270B556
:102F700001210446104601F0ADF8002001F078F878
:102F80000F4804F047F90F4B984215D108F076FB33
:102F900026690D49304606F0B2FD00280BDB246996
:102FA00009490125356404F11C0006F0A8FD00283C
:102FB00001DBE564002070BD6FF00400FBE700BF9B
:102FC000013000000000AD0B60C1000001460C2381
:102FD00009484B4370B5C418D4E90E56002240335B
:102FE000A263184407F0B1FA2DB132462B460348CC
:102FF000BDE87040184770BDB41D002074BC0000CF
:1030000010B1012804D07047034B1B6C5B0701D142
:10301000FFF7DCBF704700BFB41D002008B54FF0BC
:103020002003EFF3118183F31188BFF36F8F124AEE
:10303000136843F0020013F0010310600CD04FF04E
:103040008042D2F80C34D2F80C2413F0010303D0E0
:103050000A4807F07AFA012381F31188BFF36F8FD2
:1030600023B1BDE808400020FFF7B0BFBDE808402D
:10307000012008F00DBB00BF041E0020F41D00203D
:103080001FB500220123CDE90223094ACDF800D063
:103090006B46CDF804D007F0C8FA002805DB4FF4E2
:1030A00080420023684605F03FFA05B05DF804FB56
:1030B00057A60000094BBFF35B8F53E8002F22F0A7
:1030C000020143E800100028F7D1BFF35B8FD3075C
:1030D00002D4012004F0AEB8704700BF041E0020E7
:1030E0002DE9F0413949BFF35B8F0746012251E8D2
:1030F000003F41E800200028F9D1BFF35B8F33B9CE
:10310000334934484B60CB608A6006F00BFD7B1E70
:10311000012B2FD8012F07D14FF08043D3F81C3457
:1031200003F00303012B25D008F000FC044618B976
:10313000294B1B78002B41D14FF02003EFF3118670
:1031400083F31188BFF36F8F0124DFF890804FF075
:103150008045D5F81834D5F81824D2030CD503F0DF
:103160000303012B01D0012F06D10CB386F3118884
:10317000BFF36F8FBDE8F081ACB1304601F004F8C9
:10318000D5F81835002BE4D1D5F80421002AE0D079
:10319000C5F80431D5F804310123C5F81835C8F84D
:1031A0008031AB60D5E70021212005F0BBFCE7E7CB
:1031B0004FF080430222C3F80423DBE74FF0804343
:1031C0000222C3F808230646BFE700BF081E0020FE
:1031D000A41D0020D01D0020AC33002000E100E041
:1031E000044A1368C81A20F07F400344136005F0B6
:1031F000EBBD00BF1C1E00202DE9F843860006F140
:10320000804600F1500406F58836A400A4B204F10B
:1032100080444FF48037D6F84035DFF86C8021F0D9
:103220007F4504F588348740D8F80495A3EB09035B
:1032300023F07F4329F07F42012BC6F8402502D1BD
:10324000132008F0ABFC09F10202AB1A23F07F4314
:10325000B3F5000F88BF1546002323602368C8F824
:10326000447325F07F43C6F84035D8F804359945B6
:1032700006D0EB1A023B23F07F43B3F5000F01D8D1
:10328000BDE8F8832B46CFE70010014070B5154D1F
:10329000154C00262B68002006B170BDD4F804231D
:1032A000D203FAD5D4F84021002AF6D0C4F8406100
:1032B000D4F840214FF48032C4F84823D4F84015A4
:1032C000D4F80465721A22F07F42B2F5000F88BF6D
:1032D000314601261BB16A6828609847DAE72B60FF
:1032E000DBE700BF101E00200010014038B50F4C76
:1032F00000254FF48033C4F80855C4F804330C4B50
:103300004FF40032C3F8802101212A46112000F039
:10331000E1FE112000F0ACFE0123064AA36002206A
:1033200023601360FFF7DCFE284638BD0010014023
:1033300000E100E0181E0020134AB0F1FF3F14BF67
:1033400003461346013B002B1CDD9342A8BF1346E6
:103350000E4AD2F804050E4A1168401A10F4000F04
:1033600020F07F4218BF002301321344094A0A4863
:10337000106000205060044A934294BFC918891815
:10338000FFF73ABF0023E3E7FFFF7F000010014093
:103390001C1E0020101E0020E1310000044BD3F859
:1033A0000405044B1B68C01A20F07F40704700BF23
:1033B000001001401C1E00204FF02003EFF311828B
:1033C00083F31188BFF36F8F0649074B0868D3F862
:1033D000043582F31188BFF36F8F1B1A23F07F43EC
:1033E000184470471C1E002000100140014805F0E1
:1033F00033BE00BF30C2000010B5044618B90D4BF3
:103400000D485B689847616808290DD031F00403C6
:103410000AD011F0020108D00848214608F05DFAF0
:10342000002323600023636010BD2068142207F08E
:1034300000FCF7E73C0100208BCA0000201E0020A2
:1034400008B508B34368042B10D101220368BFF309
:103450005B8F53E8001F002903D143E800200028B8
:10346000F7D1BFF35B8F0BD1002008BD53B10068CB
:103470004FF0FF324FF0FF3304F07CFF0028F3D011
:103480000348F2E70348F0E76FF4E040EDE700BFE0
:10349000E98FFFFFEA8FFFFF08B5D0B14368042B27
:1034A00011D100220368BFF35B8F53E8001F01298D
:1034B00003D143E800200028F7D1BFF35B8F074812
:1034C00008BF104608BD3BB1006804F0CBFF0020E8
:1034D000F8E76FF4E040F5E70148F3E7E98FFFFF15
:1034E000EA8FFFFF10B5044618B9164B16485B6803
:1034F00098476368042B23D0082B21D0CBB92368CD
:10350000BBB912484FF0FF324FF0FF33214604F0B1
:1035100035FE08B923681BB90A4B0D485B6898470C
:1035200020681422002107F084FB636843F0020343
:103530006360206808F014FA636843F00103636075
:1035400010BD00BF3C0100208BCA0000201E0020DF
:10355000B1CA000008B5064906484023142208F005
:10356000A1F9BDE808400449044805F0D7BD00BFF3
:103570003C1E0020201E002048C2000038C200006F
:10358000F7B5274E306883685B6C03B198473068A5
:1035900083685B6BD3B9234C234D306883689B6988
:1035A000BBB101220DF107019847012811D1236811
:1035B000C3B92B687BB91D4B1D491E48C91AC908E0
:1035C000890141F0010106F0A5FB02E098470028BF
:1035D000E1D103B0F0BD69681A682A608B4200D15E
:1035E0006A602360144A9DF807001188B1F5007FD6
:1035F00004D223680B444F1C178018720A28CCD1C0
:103600002368118859600D494D680020186025B95C
:10361000C1E9003310802060BEE72B604B60F9E702
:1036200064270020442300203C230020E4BE000047
:103630002CBF0000DECA0000DC2900205C2700202F
:10364000044B10B5044618688368E1B25B6898477C
:10365000204610BD64270020F8B506460B461546E7
:103660004FF02002EFF3118C82F31188BFF36F8FBC
:103670001848016841B1184A54688C4204D00027A8
:103680000F609CB9C2E90011144A116829B157684A
:103690000C681460B94208BF54608CF31188BFF302
:1036A0006F8F016029B900202860F8BD216051604A
:1036B000EAE748680831F6D05C1E8442A8BF044699
:1036C0002246304607F0AAFA0023335501232B6027
:1036D000E018EAE7482300203C2300205C27002074
:1036E0001D4B37B50024C3E900441C4B1C4AC3F8EA
:1036F000084203F5027113601960516019481A4DB0
:1037000004F0CCFB286018B3836823B19B6C13B121
:10371000164922469847286883685B6B5BB19847D7
:1037200048B9134B286800241C8083689B6A63B9DE
:10373000184603B030BD286883689B69002BF0D021
:1037400001220DF107019847EAE798472046F0E784
:103750004FF0FF30EDE700BF5C2700204C23002036
:103760003C23002008CB00006427002081350000A6
:10377000DC2900202DE9F041D2B040F60613ADF867
:103780000C30404BDFF800811C68404FD8F8000037
:103790003F4E0378E41B62BA428082880133037093
:1037A00052BA0023437082800821009341F2210223
:1037B00006F0DDF801220346ADF810000092214624
:1037C00041F22102384606F0D2F83368A5B240BA79
:1037D0005B68ADF81000022103A80A3598476DBA5E
:1037E0000DF11201022206A8ADF8125007F016FAE8
:1037F0000225D8F80010ADF8125008220DF11A0079
:1038000007F00CFABDF81200083006AB80B2ADF834
:10381000120022463946184407F000FABDF812009B
:10382000204406AB80B2ADF812002A4604A9184421
:1038300007F0F4F9BDF812302B449BB205AAADF89D
:1038400012300093AD2106AB26A8FDF70DFF0599B8
:103850003368ADF8121026A85B6889B298473368C0
:103860000C485B68294698470B4B0C490C48C91A11
:10387000C908890141F0030106F04CFA52B0BDE8D5
:10388000F08100BF380000206C270020F42A0020BF
:103890006827002034CB0000E4BE000004BF000015
:1038A00037CB00002DE9FF410C681A4F1A4B023844
:1038B0000D46C4F50071009003AA38190131FDF7D7
:1038C00055FF044618BB2B68039A1344022B2B6048
:1038D00019D93E8876BAB6B2023B9E4213D14FF058
:1038E00001080346CDF8008041F221023146B81CA0
:1038F00006F03DF838B9022E05D92B68023B1F446B
:103900002B60BC704446204604B0BDE8F0814FF007
:10391000FF34F8E7742B0020772D002013B50D4CF1
:103920000A21204607F075F80B4A92E803006B461F
:1039300083E803001946204607F05CF80021204682
:1039400007F04FF80A21204607F07EF8FFF712FF34
:1039500002B010BD38000020C0BF00002DE9F04FBC
:103960000729A9B040F2B180067816F0FD0640F0B4
:10397000AC8043885BBAA1F108079BB2BB42C0F0A0
:10398000A480A24BA24C186083885BBA99B2838052
:10399000A04B2360012903F18003E36040F008821B
:1039A000C5793DB1012D00F0A48029B0BDE8F04FEC
:1039B000FFF7B4BF204607F02CF8974B089308A9EF
:1039C00006232046099307F015F80521204607F045
:1039D00014F8924FDFF848822946002005F0CFFC0A
:1039E00007A9C0B2FFF77EF90646002862D120235E
:1039F000014610AA079806F00AFD109BBB4269D049
:103A0000884B1E68079806F001FDD8F80030B342D5
:103A100050D11421204606F0FCFF834B0A930AA9DB
:103A2000042320460B9306F0E5FF2946204606F0C6
:103A3000D8FF7E4B0C930DF1600907230CA920469B
:103A40000D9306F0D7FF9DF85410484606F01AFE75
:103A500028AB461C18444FF02E0A9DF8551000F86C
:103A600040AC09EB060006F00DFE28AB3044461CC6
:103A70001844BDF8561000F840AC09EB060006F0FB
:103A800001FE28AB064433440136169903F840ACD6
:103A900009EB060006F0F6FD4846CDF8389007F031
:103AA00078F80EA90F90204606F0A4FF14212046B6
:103AB00006F0CAFF65B10521554806F0C2FF294648
:103AC000534806F0C1FFFFF755FE29B0BDE8F08F5F
:103AD000012581E74023019318ABCDE903660296E7
:103AE00000933146079B10AA3046FCF79FFE06461E
:103AF00088E70AAB18AA39460830089600F05CFA45
:103B000008B9032439E00A9B9F42FAD14FF0FF34F1
:103B1000DDF89CC018AB32463046A34635462746F2
:103B2000A246B14694455BD1BAF1FF3F08BFB7F159
:103B3000FF3FE6D0B9F1000FE3D0002105F01FFCF4
:103B400008A9C0B2FFF7CEF80028DAD157EA0A0375
:103B5000DFF8DC8009D1089BC8F800009B68A3420D
:103B600070EB0B03CDDB334B1C60D8F80030BAF19F
:103B7000000F08BFBB4269D000242F4B2F4A3048AA
:103B8000D21AD208920142F00302214606F0CFF881
:103B90000A211F4806F03DFF2A4B109310A902236B
:103BA0001B48119306F026FF1948214606F019FF1D
:103BB00064B9254B0E930EA9032315480F9306F005
:103BC00019FF1B4B1248196806F00BFF0A21104819
:103BD00006F03AFFFFF7CEFD089806F017FC74E7F1
:103BE000197A032904D8DFE801F00206090D1868E4
:103BF00001320C3396E7D3E90095F9E71C684FEAE8
:103C0000E47BF5E71F684FEAE77AF1E76C270020CD
:103C100038000020F42A00201ECB00003DB8F396A7
:103C2000BC08002000000020E2C5000025CB0000F9
:103C30007027002080270020E4BE000004BF0000A1
:103C4000ECCB00002DCB000030CB0000DFF890A1C2
:103C5000DAF800202B4493423FF653AF0898614FA7
:103C600006F053FCB5FBF0F303FB1053D8F800004B
:103C7000DAF800204119914238BFED1A0CA9284406
:103C800028BFDEB2FCF7C0FD574BFF1AFF08044601
:103C9000BF0128B1554847F0010106F03BF86CE739
:103CA000534B0C991A68914213D05248196047F04F
:103CB000030206F03CF8DDE90C12089806F0F6FB6A
:103CC000044630B14C4847F00102214606F02FF877
:103CD00053E7D8F80010494847F003036A1806F084
:103CE0003AF8002E49D0AC1B2FD0D8F80010089815
:103CF00023464A4606F0A7FB00287FF402AFD8F817
:103D000000302344C8F80030A144354632464946C5
:103D100010A806F083FF089806F000FC10AB0146DF
:103D2000C6F10802981906F084FF089CD8F80060D4
:103D3000204606F0EAFB10AA03463146204606F06C
:103D400082FB00287FF4DDAE01E0002DDED1D8F843
:103D500000301D44DAF80030C8F800509D427FF46E
:103D60000BAF089805F0C0FB0CA9FCF74DFD04460D
:103D700048B1234847F001018FE7D8F800100898B0
:103D80002B464A46DBE71A4B0C991B6899427FF792
:103D9000F3AE184847F0030205F0C9FFDDE90C1245
:103DA000089806F083FB044600283FF4E6AE89E756
:103DB00000297FF48AAEC379012B3FF4F6AD052BC1
:103DC0007FF483AEFFF7AAFD00214FF4005004F00A
:103DD000A9FE012029B0BDE8F04FFEF71DBA00BFD3
:103DE0008027002004BF0000E4BE00003ACB0000A2
:103DF0004C00002060CB00007ECB00009CCB00007C
:103E0000B7CB0000F7B51A4B1A4E1B4F18600024B1
:103E100005460094C4F500712B6801AA01313019E0
:103E200098470028019B01DC002BF3D004442BB9F8
:103E300040F201239C42EDD10024EBE73378062BBE
:103E400009D17378092B0BD1002300936946A01E7A
:103E5000FFF728FD04E0042B02D17378142BF5D072
:103E60000128E9D1009938460239FFF777FDE3E7E9
:103E700068270020752D0020762B002030B585B0F6
:103E800005460C4606F0E3FC20B9002404F00100CE
:103E900005B030BD0C23CDE9014304F13C02064BD3
:103EA00000950521012006F0E2FC0446284606F0B4
:103EB000DCFC0028E9D0E9E7BD3E000073B504460C
:103EC0000E4606F0FEFD054638B3364B00936946B4
:103ED00005232046019306F0B7FC38B13146204651
:103EE00006F069FC10B10023337240E0204606F072
:103EF000EBFDA8B12C4B00936946042320460193A7
:103F000006F0A2FC60B13146204606F09AFC38B1BA
:103F100001253572204606F0DBFD284602B070BD53
:103F2000204606F0D1FD78B1204B0093694603236B
:103F30002046019306F088FC30B13146204606F059
:103F40003AFC08B10223CFE7204606F0BDFD80B160
:103F5000174B0093032569462046019506F074FC33
:103F600038B13146204606F026FC10B135720125E5
:103F7000D0E7204606F0A8FD08B90025CAE70D4B9A
:103F80000093694603232046019306F05DFC002858
:103F9000F3D03146204606F054FC0028EDD004232F
:103FA000A2E700BF97C50000A5D10000F5CB000037
:103FB00030CB0000F9CB00001FB54FF0020C0124FC
:103FC000CDE9014C024C009406F086FD04B010BD12
:103FD0007D3E0000094A0A499368096899670949C2
:103FE00058674B6843F080534B60002383F311887C
:103FF000BFF36F8F9368986F704700BF84290020CC
:1040000044C4000000ED00E00F498A684FF0300022
:104010001044EFF3098C80E8F01F202080F3118812
:10402000BFF36F8F094F4FF000664A6A8A603E60A7
:10403000506F0023536780F3118802F1300090E83D
:10404000F01F8CF3098870478429002004ED00E0FC
:104050001EF0040F0CBFEFF30880EFF309808169B5
:1040600011F8021C0229FFD001B506F06BFD01BD5D
:1040700043B2002B08DB012200F01F0002FA00F01F
:104080005B09024A42F82300704700BF00E100E0EC
:1040900043B2002B0DDB01225B0900F01F0002FA86
:1040A00000F02033034A42F82300BFF34F8FBFF3E1
:1040B0006F8F704700E100E0054B420900F01F00E0
:1040C00053F82220012303FA00F01040704700BF8C
:1040D00000E100E043B2002BA8BF03F1604301F10F
:1040E0000101B8BF064B4FEA4111ACBF03F5614374
:1040F00000F00F00C9B2B4BF195483F80013704721
:1041000014ED00E042F8203C009B42F81C3C0A49B8
:10411000019B42F8183C029B42F8143C21F001013B
:104120004FF0807342F8043C42F8081C0023203A08
:1041300002654367704700BFB79B0000074B98605C
:10414000104681F30988002163B681F31188BFF31B
:104150006F8F0022002305F02EFD00BF8429002070
:10416000014910220A60704710ED00E072B640402D
:1041700080F31188BFF36F8FBFF34F8F30BF62B6EC
:10418000BFF36F8F704700BF72B6494081F311884B
:1041900020BF80F3118862B6704700BF73B5064632
:1041A0000C4601B3134B144D1448ED1AED08AD0144
:1041B00045F00105ADF80050D1E90123096805F08B
:1041C000E3FDADF80050D4E90423E1680C4805F0A4
:1041D000DBFDE1690B482A4605F0A9FDA1690A4803
:1041E0002A4605F0A4FD2146304602B0BDE87040E5
:1041F00003F096BEE4BE000014BF0000FDCB00003B
:104200002CCC00005BCC00006ACC000030BFFFF774
:10421000FDBF00BF0B4A08B50B4B22F07F029A602E
:10422000BFF34F8FBFF36F8FD3F8882022F4700253
:10423000C3F8882003F0D2FE04F0E6FC00F0B0FAE8
:1042400003F0F0FE0000000000ED00E001B572B6E2
:104250000B4A106A00281EBF0021116207F071FB93
:1042600062B6EFF30580A0F110004FEAC0000549E7
:10427000014409C99847BDE80140034908470000C7
:104280008429002064BD0000FD460000002080F36A
:104290001488BFF36F8F07F0A3FC00200D4908605E
:1042A000BFF34F8F0C4880F3088800F047FA2020B6
:1042B00080F3118809484FF40061401880F30988A1
:1042C000EFF314800221084380F31488BFF36F8F4B
:1042D000FFF7A0FF94ED00E070600020B0610020C7
:1042E000EFF30880EFF3098101B5724600F034F96D
:1042F00001BD00BF70B5234B234C244D2448E41A64
:10430000E408A40144F00106314605F003FDAB6A60
:104310009B0103D51F48314605F0FCFCAB6ADD016B
:1043200004D51D4844F0010105F0F4FC174DAB6ABB
:10433000180304D5194844F0010105F0EBFCAB6A01
:10434000590304D5164844F0010105F0E3FC0F4D74
:10435000AB6A9A0304D5134844F0010105F0DAFC76
:10436000AB6ADB0304D5104844F0010105F0D2FC30
:10437000064A936A6FEA03436FEA1343936200208D
:1043800070BD00BFE4BE000014BF000000ED00E0FF
:1043900098CC0000B0CC0000C3CC0000DDCC000005
:1043A000FBCC000020CD00003ACD00002DE9F0410B
:1043B0002A4B2B4C2B4DE41AE408A40144F00108CD
:1043C00007460E462848414605F0A4FCAB6AD904CE
:1043D00003D52648414605F09DFCAB6A1A0504D575
:1043E000234844F0010105F095FC1E4DAB6A9B0586
:1043F00012D544F001081F48414605F08BFCA96B1B
:10440000AB6A180408D51C48424605F090FC1FB161
:10441000AB6A23F40043AB62124DAB6A590504D575
:10442000164844F0010105F075FCAB6ADA050DD5BC
:10443000134844F0010105F06DFC0A4A936A00201C
:1044400043F47F4393623070BDE8F081AB6A9B0414
:10445000F3D50C4844F00101EDE700BFE4BE0000D5
:1044600014BF000000ED00E065CD00007BCD000032
:104470008CCD00009FCD0000B8CD0000CDCD000058
:10448000E8CD000000CE00002DE9F041284B294C7A
:10449000294DE41AE408A40144F0010807460E4639
:1044A0002648414605F036FCAB6AD80603D52448B9
:1044B000414605F02FFCAB6A190704D5214844F0AA
:1044C000010105F027FC1C4DAB6A9A0712D544F098
:1044D000010841461C4805F01DFC696BAB6A1B06D0
:1044E00008D51A48424605F022FC1FB1AB6A23F0FA
:1044F0008003AB62104DAB6AD80704D5144844F072
:10450000010105F007FCAB6A990604D5114844F097
:10451000010105F0FFFB084B9A6AD20658BF9A6A60
:104520009A6A002042F0FF029A623070BDE8F08182
:10453000E4BE000014BF000000ED00E02FCE00003C
:1045400045CE00008CCD000078CE000090CE00005B
:10455000A6CE000000CE00002DE9F043584B5E6867
:104560008BB00F46C6F30804002585F31188BFF30E
:104570006F8F02F07F43B3F17F4F0DD102F00C0338
:10458000082B0BD14F49504B5048C91AC908890113
:1045900041F0010105F0BEFB2F4603E0120701D4F4
:1045A0000746012500238DF80730E31E092B6DD83F
:1045B000DFE803F0055B5F3F6C6C6C6C6C63424B37
:1045C000404EDFF8FC804248F61AF608B60146F085
:1045D0000106314605F09EFBD8F82C404FF000094B
:1045E00014F002048DF8079005D03A48314605F0E2
:1045F00091FB002420E0D8F82C305B001CD5364815
:10460000314605F087FB98F828302BB10DF10701F2
:104610000120FFF739FF0EE098F829302BB10DF19A
:1046200007010120FFF7C2FE05E0B8F82A309BB26F
:1046300013B1FFF75FFE04469DF8073093B92022BF
:10464000394602A806F0EAFA099B9DB3C3F30802B3
:1046500022B96FEA53236FEA4323099302A9204644
:10466000FFF79CFD0BB0BDE8F0830DF107010020C2
:10467000CFE70DF107010020D4E71249124B17488C
:10468000C91AC908890141F00101B0E70E4A0D4B72
:10469000134814499B1ADB0816F4F87F4FEA83137A
:1046A00018BF014643F001030F48A4F1100205F0C2
:1046B00052FB9EE723F4FF7323F00103CDE700BF15
:1046C00000ED00E014BF0000E4BE0000C5CE000015
:1046D000F0CE000007CF000028CF000047CF000039
:1046E00080CF00006BCF000099CF0000024A5369D1
:1046F00043F010035361704700ED00E0044B9968EC
:10470000586A884203D003494FF080520A607047CC
:104710008429002004ED00E00749D1F8902000230F
:10472000C2F307221846934200D17047C1F898306F
:10473000C1F8A0000133F6E700ED00E008B572B65D
:10474000002383F31388FFF7E7FF144B4FF0FF328A
:10475000C3F88020C3F88420C3F88820C3F88C20D5
:10476000C3F89020C3F89420C3F89820C3F89C2085
:10477000C3F88021C3F88421C3F88821C3F88C21B1
:10478000C3F89021C3F89421C3F89821C3F89C2161
:1047900062B6BFF34F8FBFF36F8F08BD00E100E03B
:1047A000044800232021C2180133302B82F8001363
:1047B000F9D1704700E100E0064B9B68834207D1C6
:1047C000EFF3058323B1044A536843F080535360E9
:1047D00004F0C8B98429002000ED00E0024B034A30
:1047E0000348012100F07CB80000042000000020F4
:1047F0005CC20000F8B52A4F0E460021B14214DA1F
:104800004468002C48D0C3B104F1FF3C14EA0C0FFB
:104810000DD0244A244B2548D21AD208920142F0E6
:10482000010205F084FA6FF015021046F8BD1F2C46
:10483000EFD905681CEA050FEBD1202CD5B2D0F8D2
:1048400008C0026816D9B4F1004F15D8013CB4FA7B
:1048500084F4C4F11F046400072D4CEA04040DD94C
:10486000104A114B1248D21AD208920142F00102AA
:104870002946D6E70824EFE73E24EDE722F01F02A1
:104880002A4342F0100244F00104C7F89850C7F8D8
:104890009C20C7F8A0406A1C01310C30AEE700BF75
:1048A00000ED00E00CBF0000E4BE0000B0CF00004F
:1048B000D3CF0000044B0522C3F89420BFF34F8FE1
:1048C000BFF36F8F704700BF00ED00E0BFF35F8F55
:1048D000024B0022C3F89420704700BF00ED00E0B7
:1048E00010B5034C01232278FFF784FF207010BD20
:1048F000762F002014490868082810B521D8FFF742
:10490000E5FF124C49680022904201F10C0105D1EB
:104910000F4B1870FFF7CEFF002010BDC4F8982091
:1049200051F80C3C23F01F03134343F01003C4F869
:104930009C3051F8043C43F00103C4F8A03001322C
:10494000E2E74FF0FF30E8E768C2000000ED00E06A
:10495000762F0020014B1860704700BF50000020E8
:104960004FF02003EFF3118283F31188BFF36F8FB1
:1049700006490123C1F840354FF08041C1F8783530
:1049800082F31188BFF36F8F0020704700E0014071
:104990004FF08043C0B2C3F81C05BFF34F8F0549E9
:1049A000054BCA6802F4E0621343CB60BFF34F8F3C
:1049B00000BFFDE700ED00E00400FA0520B1034B65
:1049C000800143F001031847704700BFD0BF0000CB
:1049D00008B5094B1A786AB901211970062005211A
:1049E000FFF778FB0620FFF743FB044B4FF0004234
:1049F000C3F80423002008BD772F0020006000408A
:104A00002B4BF0B544682B481340834241D00DD85E
:104A1000062B15D005D89BB1022B3CD06FF01500AA
:104A200036E0B3F5801FF9D1012309E02248834223
:104A300033D0B3F5A00F32D0B3F5800FEED10223FF
:104A4000D00654BFC2F34016032682F48075970542
:104A5000C2F34020C5F3002507D512F4006F676844
:104A60001FD001228A40C7F80825227A134C012A58
:104A700001F01F0140EA450218BF4FF0A04442EA8E
:104A8000032301F5E07143EA860344F82130002056
:104A9000F0BD0723D4E70423D2E70523D0E703239F
:104AA000CEE7520542BF01228A40C7F80C25DCE759
:104AB0000600F00006001000020040000003005055
:104AC00000F01F024009084B012818BF4FF0A04317
:104AD00003EB8203D3F8002722F4403242EA01427A
:104AE000C3F80027704700BF000300502DE9F84FBE
:104AF0000369D0F804A0DE68DFF87CB08846D3E90B
:104B000005210A4326EA0206DAF804201B69D2F8D6
:104B100010555D4026EA0505374601244FF000098F
:104B200017B92846BDE8F88F3C4221D09AF80830E2
:104B300009F01F00344240EA431014D14209012A0F
:104B400000F01F0314BF4FF0A0425A4603F5E07374
:104B500052F82330C3F30143022B02BFD8F80030D0
:104B60002343C8F800300021FFF7AAFF27EA040713
:104B700009F101096400D3E700030050F0B50024F7
:104B800085B0CDE90044CDE90244284ED6F87C51E9
:104B90006DB102A92648FFF7A9FF03A90090254897
:104BA000FFF7A4FF0190C6F87C41D6F87C3122497A
:104BB0001E4C002201269446D4F8043306FA02F073
:104BC000184216D00B68A3B102F5A27304AF54F8D3
:104BD0002330C1F800C0C3F3403007EB8000C3F3BB
:104BE000042350F8107C06FA03F33B4340F8103CD2
:104BF0000B680132082A01F10401DDD1009A22B1CB
:104C00000E4B0B49586806F08FF8019A22B10C4BF5
:104C10000849586806F088F82DB1054806F095F85F
:104C2000044806F092F805B0F0BD00BF00600040F7
:104C3000D4BC0000ECBC0000006100408C270020C8
:104C4000A8270020F7B5144642680769127A01F0D8
:104C50001F05B4F5A03F0E4645EA421510D169097B
:104C6000012905F01F02614902F5E07218BF4FF0FB
:104C7000A04151F82220D00707D56FF085009AE0B7
:104C8000B4F5005FF96800F09880FA680121B1403E
:104C900011437A69F9600121B140B4F5A03F0CBF1E
:104CA0000A438A437A61BA69B3F5C02F0CBF0A433D
:104CB0008A43BA613A69B3F5802F0CBF114322EAE7
:104CC00001014B4A3961D2F804330020DBB200F510
:104CD000A27152F82110C1F305218D4272D123FA3D
:104CE00000F1C9076ED5830003F1804303F5C0438B
:104CF000D3F8101521F00101C3F8101501238340EA
:104D0000C2F80833C0B202F005FB28460021FFF7C5
:104D1000D7FEF868F04010F001004CD07869F04000
:104D200010F0010455D0BB69F340DB075FBF396960
:104D300021FA06F606F00106C6F102060DF107009B
:104D400054BFF6B2032602F005FB2A4B98423DD130
:104D50009DF80720930003F1804303F5C0432D0223
:104D6000D3F8101521F44F3121F44071C3F8101518
:104D7000D3F8101505F47C550D4345EA0646C3F8F3
:104D80001065930003F1804303F5C24300201860CF
:104D90009DF807101B688B0003F1804303F5C043A7
:104DA000D3F8102542F00102C3F81025104A012360
:104DB0008B40C2F8043303B0F0BD0122B24021EAB7
:104DC000020166E70130082881D19EE76FF01200EA
:104DD000F1E73969F14001F00101C1F10301284611
:104DE000C9B2FFF76DFE2046E5E700BF00030050A3
:104DF000006000400000AD0B73B50469456863684E
:104E000095F821101E6801AA0223B04700280DDA88
:104E1000114B12491248C91AC908890141F002010F
:104E200004F078FF6FF0040002B070BD9DF905102A
:104E3000616195F822200AB9A261F5E79DF8043076
:104E4000C2F108052B41074D6B4313410029B8BF40
:104E50005B42A361E8E700BFE4BE0000F4BE0000CF
:104E600013D0000040420F002DE9F0414768D0F810
:104E70001080064688B0386803F010F8554D564B40
:104E8000C8F80000ED1AED08AD0158B9396853486B
:104E900045F0010204F04BFF6FF01504204608B006
:104EA000BDE8F0817B6830469847D8F804300DF1B2
:104EB00003029B680F2130469847041E05DA4848D4
:104EC00045F0010104F026FFE8E79DF803103329BF
:104ED00003D0444845F00102DCE73B7F5BB1424B25
:104EE00044F6161242F28B41C3E900123F4A49F2DE
:104EF0002D20C3E902027B7F6BB1D8F804301C6916
:104F000080231A461E213046A047041E03DA384883
:104F100045F00101D6E70622002101A805F089FE2F
:104F200007238DF80430D8F8043001AA5C682021EA
:104F300006233046A047041E03DA2E4845F001013F
:104F4000C0E7294B1B68C8F81030D8F8043080221D
:104F5000DB68232130469847041E03DA264845F0D3
:104F60000101AFE7D8F8042097F820301469F97FE1
:104F70001A463046A047041E03DA204845F00101D6
:104F8000A0E7FB680BB97B6943B1304600F0C2FA79
:104F9000041E03DA1A4845F0010193E73B680393C6
:104FA00002220423CDE9042300230693D8F810300D
:104FB00014480793052245F0030303A904F000FFFA
:104FC000D8F804304722DB68202130469847044651
:104FD00064E700BFF4BE0000E4BE00003AD0000069
:104FE0004FD0000067D000005400002094B60100AC
:104FF0007ED00000A4D00000C4D00000ECD000009F
:1050000015D1000036D10000034670B510461D6969
:105010000C292FD8DFE801F02A072C0A2E2E2E2E7D
:105020002E2E2E2E23000124224601E002240022EF
:105030001249944200F1080016DB131D05EB4303EF
:105040002E69B3F901301B11734393FBF1F601FB99
:10505000163340F8086C40F8043C0132E9E70822B6
:1050600005F1140105F0DAFD002070BD0024DBE736
:105070000224D9E76FF08500F7E700BF40420F0038
:1050800038B505696B6805F108021C6827210723FC
:10509000A047041E0BDA0949094B0A48C91AC90876
:1050A000890141F0020104F035FE204638BD2B7A1B
:1050B00013F00F0F18BF0024F7E700BFF4BE000085
:1050C000E4BE00008BD100000369024A5A60002050
:1050D000704700BFFCC200002DE9F043794B7A4DC8
:1050E0007A4FED1AED08AD0185B0064645F0010591
:1050F0004FF0FF324FF0FF3306F5996003F014FADA
:10510000F4696368D4F81080DA68002A56D0BFF3D7
:105110005B8F08F1400252E8001F21F0010042E8D5
:10512000000CBCF1000FF6D1BFF35B8FCA0745D569
:1051300000238DF80730D4F81080D8F804302021EF
:105140009B680DF1070220469847011E31DB9DF850
:105150000720D8F804302021DB6802F00F02204637
:105160009847011E25DBD8F804302721D3F800909A
:1051700002AA07232046C847011E1ADB60684FF4C5
:10518000B8210C3005F0E8FED8F804309DF807206F
:10519000DB68202120469847011E0ADBD8F804303E
:1051A000D3F81080102322211A462046C047011E42
:1051B0009EDA47482A4604F0BAFD99E75A6962B375
:1051C000BFF35B8F08F1400252E8001F21F002009C
:1051D00042E8000CBCF1000FF6D1BFF35B8F8807EB
:1051E0001BD5D4F80480D4F810904FF4B82108F1FE
:1051F000140005F0B1FE98F81E20D9F80430002AFA
:1052000014BF30213421DB682A2220469847011E32
:10521000BFF66EAF2F482A46CDE7DA6802B3BFF378
:105220005B8F08F1400252E8001F21F0100042E8B5
:10523000000CBCF1000FF6D1BFF35B8FC9060FD590
:105240000123ADF80830B8F84430ADF80A30D8F88A
:105250003830002B3FF44CAF02A92046984747E76F
:105260005A69002A3FF444AFBFF35B8F08F1400254
:1052700052E8001F21F0200042E8000CBCF1000FB2
:10528000F6D1BFF35B8F8A067FF532AF02229B7F98
:10529000ADF80820B8F84420ADF80A20D8F804206A
:1052A000002BD2F8089014BF312135210DF10702EF
:1052B0002046C847011E02DA2A4638467BE7D8F85E
:1052C0003C30C6E7E4BE0000F4BE0000FAD10000A6
:1052D000BED10000DCD100000B88012B2DE9F74383
:1052E000044616464AD1B1F80280B8F1030F0DD139
:1052F00040682569C36863B949494A4B4A48C91A95
:10530000C908890141F0010104F004FD6FF0850036
:1053100031E04FF400510C3005F1400705F01CFE60
:10532000BFF35B8F57E8003F23F0100347E80032DC
:10533000002AF7D1BFF35B8F6B681022D3F810906F
:10534000222100232046C847AE63A6B1002812DB05
:10535000A5F84480BFF35B8F57E8003F43F001039B
:1053600047E80032002AF7D1BFF35B8F05F599605B
:1053700003F0BAF8002003B0BDE8F083022BC5D1DA
:10538000476805697B6943B92549264B2748C91AEF
:10539000C908890141F00101B6E74FF4005107F156
:1053A000140005F1400805F0D7FDBFF35B8F58E806
:1053B000003F23F0200348E80032002AF7D1BFF372
:1053C0005B8FBB7F3BB16B681022D3F8109022211A
:1053D00000232046C847BA7F6B68002A14BF3021DB
:1053E0003421DB68002220469847BA7F6B68002A88
:1053F0009B680DF1070214BF3121352120469847E3
:10540000EE63002EB7D00028B5DBBFF35B8F58E802
:10541000003F43F0020348E80032002AA4D0F6E738
:10542000F4BE0000E4BE00001AD200003DD200002D
:10543000F0B503290669476885B00546144640D192
:1054400073680DF10F029B6823219847002833DB16
:105450009DF80F2029480223C2F3011203FA02F239
:10546000D4E9001300FB01332548013B82FB0041D6
:105470009C4271F1000121DB224C8021B1FBF2F151
:105480005943B1FBF0F120488DF80F10241AE408BD
:10549000A40144F00304C9B21C48ADF8004004F074
:1054A00073FCBA7F7368002ADB689DF80F2014BF75
:1054B000322136212846984705B0F0BD6FF015001F
:1054C000FAE711687F2916D80F4A0E4B10489B1A2D
:1054D000DB089B0143F0030204F029FCBA7F7368E8
:1054E000002ADB68227814BF33213721284605B013
:1054F000BDE8F04018476FF08500DDE740420F003F
:105500003AA39500F4BE0000E4BE000065D200009E
:1055100086D200002DE9F04106694568F0618AB045
:1055200007464FF0FF32002106F5996006F01FFA9A
:1055300000220023CDE9062300236FF00502CDE908
:105540000323CDE901330096734B4FF4806206F1DB
:10555000480106F5896002F06FFEE86806F08DF9F3
:10556000B0B105F10C0005F0E1FC6C4A6C4BA3EB0B
:1055700002084FEAD808041E2A7CE8684FEA881817
:1055800017DA0168674848F0010304F0E4FB24E0FF
:10559000EB68002B33D06149614A521AD20892015C
:1055A000196842F00102604804F0C1FB6FF0120478
:1055B00013E0012404FA02F35C4AC6E90923836874
:1055C000DB6906F1200163B122469847041E0BDA1D
:1055D000574848F0010104F09DFB20460AB0BDE8A1
:1055E000F0816FF08504F3E7EA682B7C3968514855
:1055F00048F00308ADF80080126804F0C5FB686944
:1056000006F03BF958B96C69002CE6D0444A434B8C
:105610002168D21AD208920142F00102C3E705F1D3
:10562000140005F083FC3D4A3D4BA3EB02084FEA12
:10563000D808041E2A7E68694FEA8818A1DB012475
:1056400004FA02F33C4AC6E90C238368DB6906F1DD
:105650002C0153B122469847041E09DA374848F016
:105660000102214604F063FBB7E76FF08504F5E71C
:1056700069692B7E324848F00302ADF800200A68C1
:10568000396804F081FBAA7F7368002A14BF3021B7
:105690003421DB68002238469847041E04DA294882
:1056A00048F001022146DDE70021022209A805F0A9
:1056B000C0FA73685C68AB7F002B14BF32213621BF
:1056C000022309AA3846A047041E04DA1E4848F0FF
:1056D00001022146C6E773681C69AB7F9BB140237A
:1056E0001A4622213846A0477368DB680822242125
:1056F0003846984700280446BFF66FAF014648F089
:1057000001021248AEE720231A4625213846A04759
:1057100073680222DB68EAE7D9500000E4BE0000AB
:10572000F4BE0000ABD2000094D2000089AF0000AC
:10573000C7D20000E8D20000ADAF0000FCD20000EC
:1057400022D3000036D300005ED300007DD30000DA
:1057500038B50446002201212320FEF7BBFC236953
:105760006068DC640D4A00F1080102F081F90C4B1D
:10577000984211D00B4B0C4A21680C48D21AD2081F
:10578000920142F0010204F0D2FA6FF00F05206995
:1057900005F053FC284638BD0025F8E72D580000D9
:1057A0000000AD0BE4BE00003CBF0000A0D3000031
:1057B00030B505692A6CAB6C85B082B973BB1C46E9
:1057C00000221146284605F013FCAC6205F11800D2
:1057D00002F08AFE002385F8543005B030BD114632
:1057E00013B19A4228BF1946EC6B29650094BCB1ED
:1057F000002A18BF0A4601926A6C029292B1002BED
:1058000018BF0B46406803930022694602F0D2F9A4
:10581000054B9842E1D06FF00404D1E71946E3E765
:105820002246E8E71346EDE70000AD0B10B503781C
:105830000C46002B4ED10B6C63B10A6D9A421DD9F8
:105840002549264B2648C91AC908890141F001019A
:1058500004F060FAA36C63B1226D9A4224D91E4908
:105860001E4B1F48C91AC908890141F0010104F003
:1058700051FAE06CBDE81040FFF79ABF9B1A0B6429
:1058800063B90B6B013B0B6363B1CB6A03F1080295
:10589000CA629A68DB68CA630B64DBE7CB6B002BD8
:1058A000D8D01344E363D5E79B1AA36463B9A36B11
:1058B000013BA36363B1636B03F1080262639A68FF
:1058C000DB686264A364D4E7636C002BD1D013441B
:1058D0006364CEE710BD00BF3CBF0000E4BE000023
:1058E000C0D300002DE9F84F1E468B8804695B0485
:1058F00080460D4617462CD44FF0FF324FF0FF3351
:1059000004F1080002F010FE6560D8F8102013685A
:105910009D4200F0B580AB88D80721D5984A994BB5
:10592000D8F800109848D21AD208920142F0010229
:1059300004F0FDF96FF0150523689B8813F480438C
:1059400004D1636004F1080002F0CEFD2846BDE8F2
:10595000F88F2369002BCFD163689942CCD1D4E76B
:1059600019070AD58649874B8848C91AC908890189
:1059700041F0010104F0CEF9DCE713F4C05F08D078
:105980007F49804B8248C91AC908890141F0010149
:10599000F0E7C3F34513082B08D07949794B7D48CC
:1059A000C91AC908890141F00101E3E729687A4B66
:1059B000994208D87249734B7848C91AC9088901B5
:1059C00041F00101D6E7AB68D8F804901560002BD0
:1059D00000F0A6801868002800F0A280197A5B7A8F
:1059E000D0F810E0D0F808A0DEF800C0DA0754BF05
:1059F00043F4B05383F4D0534FF0010B23F480529F
:105A00000BFA01FBDB074CBF4CEA0B032CEA0B0340
:105A1000CEF80030DAF800309847A988D9F800208D
:105A2000880701F0040340F18680002B14BF032394
:105A30000223022BC1F3001100F08180032B00F040
:105A40008180012B01D141F00201554BC2F8541560
:105A50002968994279D9534B994279D9524B994245
:105A600079D9524B994279D9514B994279D9514BB5
:105A7000994234BF4FF080414FF00041C2F82415E5
:105A8000012384F85430002F6ED03B687A68E362BB
:105A900022631A685B68E2632364002E69D033686E
:105AA00072686363A2631A685B686264A364002619
:105AB000324601212046A66205F09AFA4046FFF7D9
:105AC00077FEA56C236C27469D4238BF1D464FF4D8
:105AD000FA535D4357F8183B4FF4004C1B68B5FB75
