:020000040001F9
:108000003DB8F3960000000000020000387E0B002F
:108010000000000006040100C9614D63000000007B
:10802000FFFFFFFFFFFFFFFFFFFFFFFFFFFFFFFF60
:10803000FFFFFFFFFFFFFFFFFFFFFFFFFFFFFFFF50
:10804000FFFFFFFFFFFFFFFFFFFFFFFFFFFFFFFF40
:10805000FFFFFFFFFFFFFFFFFFFFFFFFFFFFFFFF30
:10806000FFFFFFFFFFFFFFFFFFFFFFFFFFFFFFFF20
:10807000FFFFFFFFFFFFFFFFFFFFFFFFFFFFFFFF10
:10808000FFFFFFFFFFFFFFFFFFFFFFFFFFFFFFFF00
:10809000FFFFFFFFFFFFFFFFFFFFFFFFFFFFFFFFF0
:1080A000FFFFFFFFFFFFFFFFFFFFFFFFFFFFFFFFE0
:1080B000FFFFFFFFFFFFFFFFFFFFFFFFFFFFFFFFD0
:1080C000FFFFFFFFFFFFFFFFFFFFFFFFFFFFFFFFC0
:1080D000FFFFFFFFFFFFFFFFFFFFFFFFFFFFFFFFB0
:1080E000FFFFFFFFFFFFFFFFFFFFFFFFFFFFFFFFA0
:1080F000FFFFFFFFFFFFFFFFFFFFFFFFFFFFFFFF90
:10810000FFFFFFFFFFFFFFFFFFFFFFFFFFFFFFFF7F
:10811000FFFFFFFFFFFFFFFFFFFFFFFFFFFFFFFF6F
:10812000FFFFFFFFFFFFFFFFFFFFFFFFFFFFFFFF5F
:10813000FFFFFFFFFFFFFFFFFFFFFFFFFFFFFFFF4F
:10814000FFFFFFFFFFFFFFFFFFFFFFFFFFFFFFFF3F
:10815000FFFFFFFFFFFFFFFFFFFFFFFFFFFFFFFF2F
:10816000FFFFFFFFFFFFFFFFFFFFFFFFFFFFFFFF1F
:10817000FFFFFFFFFFFFFFFFFFFFFFFFFFFFFFFF0F
:10818000FFFFFFFFFFFFFFFFFFFFFFFFFFFFFFFFFF
:10819000FFFFFFFFFFFFFFFFFFFFFFFFFFFFFFFFEF
:1081A000FFFFFFFFFFFFFFFFFFFFFFFFFFFFFFFFDF
:1081B000FFFFFFFFFFFFFFFFFFFFFFFFFFFFFFFFCF
:1081C000FFFFFFFFFFFFFFFFFFFFFFFFFFFFFFFFBF
:1081D000FFFFFFFFFFFFFFFFFFFFFFFFFFFFFFFFAF
:1081E000FFFFFFFFFFFFFFFFFFFFFFFFFFFFFFFF9F
:1081F000FFFFFFFFFFFFFFFFFFFFFFFFFFFFFFFF8F
:108200006019032081530500C9520500E55305009C
:10821000E5530500E5530500E553050000000000A7
:10822000000000000000000000000000894E050072
:10823000E553050000000000ED4D05002D78090014
:1082400041530500D51B0A00415305004153050069
:1082500041530500A71D0A00415305004153050085
:108260009D1B0A004153050041530500BB1B0A003A
:10827000415305004153050041530500415305009A
:10828000415305004153050041530500415305008A
:10829000415305004153050041530500415305007A
:1082A000415305004153050041530500415305006A
:1082B000415305004153050041530500415305005A
:1082C000415305004153050041530500415305004A
:1082D000415305004153050041530500415305003A
:1082E000415305004153050041530500415305002A
:1082F000415305004153050041530500415305001A
:10830000000000000000000000000000000000006D
:10831000000000000000000000000000000000005D
:10832000000000000000000000000000000000004D
:10833000000000000000000000000000000000003D
:10834000000000000000000000000000000000002D
:10835000000000000000000000000000000000001D
:10836000000000000000000000000000000000000D
:1083700000000000000000000000000000000000FD
:1083800000000000000000000000000000000000ED
:1083900000000000000000000000000000000000DD
:1083A00000000000000000000000000000000000CD
:1083B00000000000000000000000000000000000BD
:1083C00000000000000000000000000000000000AD
:1083D000000000000000000000000000000000009D
:1083E000000000000000000000000000000000008D
:1083F000000000000000000000000000000000007D
:10840000DEE61E284CBBCE8F023400003C0000008C
:10841000387E0B0001000000008201000082010094
:10842000FFFF0291000000000000000000000000BB
:10843000000000000000000000000000FFFFFFFF40
:1084400001F0FF01102A2BDB10F0070F08D010F805
:10845000013B013A8B422DD010F0070F42B3F6D109
:10846000F0B441EA012141EA014122F007047FF022
:1084700000070023F0E80256083C85EA010586EA79
:10848000010685FA47F5A3FA87F586FA47F6A5FAB5
:1084900087F68EB9EED1F0BC01F0FF0102F00702C1
:1084A00032B110F8013B013A83EA010313B1F8D16C
:1084B0000020704701387047002D06BF354603384D
:1084C000073815F0010F07D1013015F4807F02BF86
:1084D000013015F4C03F0130F0BC0138704700BFD7
:1084E00081F0004102E000BF83F0004330B54FEA65
:1084F00041044FEA430594EA050F08BF90EA020FD2
:108500001FBF54EA000C55EA020C7FEA645C7FEA64
:10851000655C00F0E2804FEA5454D4EB5555B8BF87
:108520006D420CDD2C4480EA020281EA030382EAF8
:10853000000083EA010180EA020281EA0303362D8A
:1085400088BF30BD11F0004F4FEA01314FF4801C5D
:108550004CEA113102D0404261EB410113F0004F6F
:108560004FEA03334CEA133302D0524263EB430326
:1085700094EA050F00F0A780A4F10104D5F1200EC4
:108580000DDB02FA0EFC22FA05F2801841F100011F
:1085900003FA0EF2801843FA05F359410EE0A5F1F3
:1085A00020050EF1200E012A03FA0EFC28BF4CF024
:1085B000020C43FA05F3C01851EBE37101F00045DA
:1085C00007D54FF0000EDCF1000C7EEB00006EEBE7
:1085D0000101B1F5801F1BD3B1F5001F0CD3490871
:1085E0005FEA30004FEA3C0C04F101044FEA4452C8
:1085F00012F5800F80F09A80BCF1004F08BF5FEA4F
:10860000500C50F1000041EB045141EA050130BD2E
:108610005FEA4C0C404141EB0101013C28BFB1F540
:10862000801FE9D291F0000F04BF01460020B1FA8B
:1086300081F308BF2033A3F10B03B3F120020CDA5E
:108640000C3208DD02F1140CC2F10C0201FA0CF03C
:1086500021FA02F10CE002F11402D8BFC2F1200CA1
:1086600001FA02F120FA0CFCDCBF41EA0C01904057
:10867000E41AA2BF01EB0451294330BD6FEA0404A0
:108680001F3C1CDA0C340EDC04F11404C4F120028B
:1086900020FA04F001FA02F340EA030021FA04F39D
:1086A00045EA030130BDC4F10C04C4F1200220FAF4
:1086B00002F001FA04F340EA0300294630BD21FA32
:1086C00004F0294630BD94F0000F83F4801306BFF8
:1086D00081F480110134013D4EE77FEA645C18BFEC
:1086E0007FEA655C29D094EA050F08BF90EA020F83
:1086F00005D054EA000C04BF1946104630BD91EA7B
:10870000030F1EBF0021002030BD5FEA545C05D17D
:108710004000494128BF41F0004130BD14F58004BC
:108720003CBF01F5801130BD01F0004545F0FE4130
:1087300041F470014FF0000030BD7FEA645C1ABF65
:10874000194610467FEA655C1CBF0B46024650EA9C
:10875000013406BF52EA033591EA030F41F40021C8
:1087600030BD00BF90F0000F04BF0021704730B54E
:108770004FF4806404F132044FF000054FF0000123
:1087800050E700BF90F0000F04BF0021704730B5E4
:108790004FF4806404F1320410F0004548BF4042B9
:1087A0004FF000013EE700BF42004FEAE2014FEA0E
:1087B00031014FEA02701FBF12F07F4393F07F4FE9
:1087C00081F06051704732F07F4208BF704793F0EC
:1087D0007F4F04BF41F40021704730B54FF46074FF
:1087E00001F0004521F000411CE700BF50EA010202
:1087F00008BF704730B54FF000050AE050EA0102AB
:1088000008BF704730B511F0004502D5404261EB1A
:1088100041014FF4806404F132045FEA915C3FF45B
:10882000D8AE4FF003025FEADC0C18BF03325FEAF8
:10883000DC0C18BF033202EBDC02C2F1200300FAA9
:1088400003FC20FA02F001FA03FE40EA0E0021FACE
:1088500002F11444BDE600BF70B54FF0FF0C4CF4BC
:10886000E06C1CEA11541DBF1CEA135594EA0C0F6E
:1088700095EA0C0F00F0DEF82C4481EA030621EAA9
:108880004C5123EA4C5350EA013518BF52EA0335E4
:1088900041F4801143F4801338D0A0FB02CE4FF096
:1088A0000005E1FB02E506F00042E0FB03E54FF0C6
:1088B0000006E1FB03569CF0000F18BF4EF0010EBE
:1088C000A4F1FF04B6F5007F64F5407404D25FEABA
:1088D0004E0E6D4146EB060642EAC62141EA55516D
:1088E0004FEAC52040EA5E504FEACE2EB4F1FD0CAF
:1088F00088BFBCF5E06F1ED8BEF1004F08BF5FEA2D
:10890000500E50F1000041EB045170BD06F00046DE
:1089100046EA010140EA020081EA0301B4EB5C048B
:10892000C2BFD4EB0C0541EA045170BD41F4801183
:108930004FF0000E013C00F3AB8014F1360FDEBFA8
:10894000002001F0004170BDC4F10004203C35DA84
:108950000C341BDC04F11404C4F1200500FA05F307
:1089600020FA04F001FA05F240EA020001F00042A8
:1089700021F0004110EBD37021FA04F642EB06011E
:108980005EEA430E08BF20EAD37070BDC4F10C0448
:10899000C4F1200500FA04F320FA05F001FA04F20C
:1089A00040EA020001F0004110EBD37041F10001F8
:1089B0005EEA430E08BF20EAD37070BDC4F1200503
:1089C00000FA05F24EEA020E20FA04F301FA05F26B
:1089D00043EA020321FA04F001F0004121FA04F213
:1089E00020EA020000EBD3705EEA430E08BF20EAE3
:1089F000D37070BD94F0000F0FD101F0004640001D
:108A000041EB010111F4801F08BF013CF7D041EA9E
:108A1000060195F0000F18BF704703F000465200A2
:108A200043EB030313F4801F08BF013DF7D043EA73
:108A30000603704794EA0C0F0CEA135518BF95EA29
:108A40000C0F0CD050EA410618BF52EA4306D1D1B0
:108A500081EA030101F000414FF0000070BD50EACF
:108A6000410606BF1046194652EA430619D094EA59
:108A70000C0F02D150EA013613D195EA0C0F05D143
:108A800052EA03361CBF104619460AD181EA030197
:108A900001F0004141F0FE4141F470014FF000004F
:108AA00070BD41F0FE4141F4780170BD70B54FF0EA
:108AB000FF0C4CF4E06C1CEA11541DBF1CEA13556A
:108AC00094EA0C0F95EA0C0F00F0A7F8A4EB05044C
:108AD00081EA030E52EA03354FEA013100F0888043
:108AE0004FEA03334FF0805545EA131343EA12630C
:108AF0004FEA022245EA111545EA10654FEA0026C1
:108B00000EF000419D4208BF964244F1FD0404F579
:108B1000407402D25B084FEA3202B61A65EB0305D5
:108B20005B084FEA32024FF480104FF4002CB6EB92
:108B3000020E75EB030E22BFB61A754640EA0C0012
:108B40005B084FEA3202B6EB020E75EB030E22BF52
:108B5000B61A754640EA5C005B084FEA3202B6EB93
:108B6000020E75EB030E22BFB61A754640EA9C0052
:108B70005B084FEA3202B6EB020E75EB030E22BF22
:108B8000B61A754640EADC0055EA060E18D04FEAE0
:108B9000051545EA16754FEA06164FEAC30343EA80
:108BA00052734FEAC2025FEA1C1CC0D111F4801F4D
:108BB0000BD141EA00014FF000004FF0004CB6E746
:108BC00011F4801F04BF01430020B4F1FD0C88BFE5
:108BD000BCF5E06F3FF6AFAEB5EB030C04BFB6EBF0
:108BE000020C5FEA500C50F1000041EB045170BDE3
:108BF0000EF0004E4EEA113114EB5C04C2BFD4EB10
:108C00000C0541EA045170BD41F480114FF0000E93
:108C1000013C90E645EA060E8DE60CEA135594EA0F
:108C20000C0F08BF95EA0C0F3FF43BAF94EA0C0F12
:108C30000AD150EA01347FF434AF95EA0C0F7FF487
:108C400025AF104619462CE795EA0C0F06D152EADB
:108C500003353FF4FDAE1046194622E750EA4106BF
:108C600018BF52EA43067FF4C5AE50EA41047FF4D0
:108C70000DAF52EA43057FF4EBAE12E74FEA410233
:108C800012F5001215D211D56FF47873B3EB62525E
:108C900012D94FEAC12343F0004343EA505311F085
:108CA000004F23FA02F018BF404270474FF0000017
:108CB000704750EA013005D111F0004008BF6FF055
:108CC000004070474FF00000704700BF4A0011D2CB
:108CD00012F5001211D20DD56FF47873B3EB625216
:108CE0000ED44FEAC12343F0004343EA505323FA22
:108CF00002F070474FF00000704750EA013002D197
:108D00004FF0FF3070474FF0000070474FEA4102CC
:108D1000B2F1E04324BFB3F5001CDCF1FE5C0DD9D9
:108D200001F0004C4FEAC0024CEA5070B2F1004F23
:108D300040EB830008BF20F00100704711F0804F26
:108D400021D113F13872BCBF01F00040704741F4EB
:108D500080114FEA5252C2F11802C2F1200C10FAEF
:108D60000CF320FA02F018BF40F001004FEAC123D3
:108D70004FEAD32303FA0CFC40EA0C0023FA02F377
:108D80004FEA4303CCE77FEA625307D150EA01334D
:108D90001EBF4FF0FE4040F44000704701F000401D
:108DA00040F0FE4040F40000704700BF80F00040FB
:108DB00002E000BF81F0004142001FBF5FEA4103B3
:108DC00092EA030F7FEA226C7FEA236C6AD04FEAB3
:108DD0001262D2EB1363C1BFD218414048404140F8
:108DE000B8BF5B42192B88BF704710F0004F40F4AA
:108DF000000020F07F4018BF404211F0004F41F4C6
:108E0000000121F07F4118BF494292EA030F3FD091
:108E1000A2F1010241FA03FC10EB0C00C3F12003A4
:108E200001FA03F100F0004302D5494260EB400033
:108E3000B0F5000F13D3B0F1807F06D340084FEA9E
:108E4000310102F10102FE2A51D2B1F1004F40EB93
:108E5000C25008BF20F0010040EA030070474900FB
:108E600040EB0000013A28BFB0F5000FEDD2B0FA98
:108E700080FCACF1080CB2EB0C0200FA0CF0AABFBB
:108E800000EBC25052421843BCBFD0401843704759
:108E900092F0000F81F4000106BF80F4000001325F
:108EA000013BB5E74FEA41037FEA226C18BF7FEA36
:108EB000236C21D092EA030F04D092F0000F08BF78
:108EC0000846704790EA010F1CBF0020704712F05F
:108ED0007F4F04D1400028BF40F00040704712F19E
:108EE00000723CBF00F50000704700F0004343F003
:108EF000FE4040F4000070477FEA226216BF084639
:108F00007FEA23630146420206BF5FEA412390EAFB
:108F1000010F40F4800070474FF0000304E000BFF1
:108F200010F0004348BF40425FEA000C08BF7047A2
:108F300043F0964301464FF000001CE050EA010266
:108F400008BF70474FF000030AE000BF50EA01027B
:108F500008BF704711F0004302D5404261EB410168
:108F60005FEA010C02BF84460146002043F0B6438D
:108F700008BFA3F18053A3F50003BCFA8CF2083AB2
:108F8000A3EBC25310DB01FA02FC634400FA02FCBB
:108F9000C2F12002BCF1004F20FA02F243EB0200C2
:108FA00008BF20F00100704702F1200201FA02FC24
:108FB000C2F1200250EA4C0021FA02F243EB020017
:108FC00008BF20EADC7070477BB972B90029BEBFC8
:108FD00000204FF0004106E008BF00281CBF6FF0E2
:108FE00000414FF0FF3000F075B8ADF1080C6DE9AD
:108FF00004CE002909DB002B1ADB17F0D1FADDF8CB
:1090000004E0DDE9022304B07047404261EB410116
:10901000002B1BDB17F0C4FADDF804E0DDE90223C6
:1090200004B0404261EB4101524263EB430370479D
:10903000524263EB430317F0B3FADDF804E0DDE9D5
:10904000022304B0404261EB41017047524263EB9E
:10905000430317F0A5FADDF804E0DDE9022304B0CC
:10906000524263EB4303704753B94AB9002908BF22
:1090700000281CBF4FF0FF314FF0FF3000F02AB83E
:10908000ADF1080C6DE904CE17F08AFADDF804E0C2
:10909000DDE9022304B07047D0B50C4B0022064630
:1090A0000F46FFF7D9FBFFF711FE0446FFF75AFB07
:1090B000074B0022FFF7D0FB02460B4630463946ED
:1090C000FFF712FAFFF702FE2146D0BD0000F03D87
:1090D0000000F041704700BF4FF0FF3C06E000BFCA
:1090E0004FF0010C02E000BF4FF0010C4DF804CD31
:1090F0004FEA410C7FEA6C5C4FEA430C18BF7FEAF1
:109100006C5C1BD001B050EA410C0CBF52EA430C1E
:1091100091EA030F02BF90EA020F0020704710F19E
:10912000000F91EA030F58BF994208BF90422CBF2D
:10913000D8176FEAE37040F0010070474FEA410C26
:109140007FEA6C5C02D150EA013C07D14FEA430C44
:109150007FEA6C5CD6D152EA033CD3D05DF8040BB5
:10916000704700BF8446104662468C4619466346E7
:1091700000E000BF01B5FFF7B7FF002848BF10F1BE
:10918000000F01BD4DF808EDFFF7F4FF0CBF012003
:1091900000205DF808FB00BF4DF808EDFFF7EAFF7F
:1091A00034BF012000205DF808FB00BF4DF808ED3A
:1091B000FFF7E0FF94BF012000205DF808FB00BF2F
:1091C0004DF808EDFFF7CEFF94BF012000205DF8B9
:1091D00008FB00BF4DF808EDFFF7C4FF34BF0120C6
:1091E00000205DF808FB00BF4FEA410C7FEA6C5C91
:1091F00002D150EA013C0AD14FEA430C7FEA6C5C91
:1092000002D152EA033C02D14FF0000070474FF008
:1092100001007047F8B515460A4A1C4656682EB13B
:1092200001B02A46B446BDE8F040604700208DF802
:109230000000684617F01BFB9DF80000281A2070FC
:109240000020F8BD0000002030B4054C246814B1A3
:10925000A44630BC60471A7030BC00207047000044
:1092600000000020002819D003781349134A13B1D5
:10927000012B0ED011E00379012B00D06BB943799B
:109280000BB1012B09D18368643B8B4205D2C068C6
:109290000EE00379012B02D00BB100207047437917
:1092A0000BB1012BF9D1C368643B8B42F5D28068C6
:1092B0009042F2D8012070473D860100FF1FA107B0
:1092C00010B5054C206810B1804700202060BDE833
:1092D000104001F0D9BF0000080000202DE9F04146
:1092E0000E46050004D000F045F8074600240AE0C9
:1092F0006FF01500BDE8F081204600F041F880785D
:1093000038B1641CE4B2BC42F6D300BF6FF00B006E
:10931000F0E72746FF2CF9D0204600F031F804464C
:1093200017F048FC27712146074801F085FFE070DF
:10933000202805D00120A560A07037700020D9E753
:109340006FF02200D6E700001509030010B5820770
:1093500002D06FF00D0010BD054A1170506028B1A9
:1093600001EBC1018A00002117F0B5FE002010BDFD
:109370000C00002001480078704700000C0000201D
:1093800005490A78904201D300207047496800EBF4
:10939000C00001EB800070470C00002070B505464E
:1093A000202A27D019481A4C00EB831C0CEB4200F2
:1093B00004EB8303202922D00CEB410140784C7848
:1093C0004870204601460CEB410091420570407800
:1093D000F8D193F82220202A1ABF0CEB42025470D5
:1093E00083F8214020220CEB410C8CF8012083F8FB
:1093F000221070BD40F29121702003F079F993F8AA
:109400002040407883F82000DBE700001C22002089
:109410009C2200202DE9FF4F0C46498987B001F5B9
:10942000E1611546814200F2DA8005AA02A902F044
:1094300019F902980A9F284420F07F400490A94817
:10944000A94E00EB8700039090F820502020E946B9
:109450000DF104088DF8000006F5407A202D18BFA4
:109460000AEB871B26D000BF05EB450006EBC000CA
:109470002168C268891A0902CA1701EB1261083013
:10948000091217D4618971B1418961B900F0B2FD47
:1094900002F0CCF82168081A0002C11700EB116035
:1094A0000012332806DB0BEB450089F800504578A5
:1094B000202DD9D199F8000088F80000A146202D70
:1094C0001CBF8A4800EB871B00F0088105EB4501B3
:1094D00006EBC10AD9F80410DAF808204846511AF8
:1094E0000902CA1701EB12610AF10807091215D423
:1094F0007989002900F0F2804189002940F0EE804E
:1095000000F078FD02F092F83968081A0002C117DD
:1095100000EB11600012332880F2E08088F80050E0
:109520009AF8141099F80C00814206D90BEB45000B
:109530004578202DCAD100F0D1B89DF8040000EB89
:10954000400006EBC005688AEF6800283FD16089BB
:10955000E8B3A86817F0D7FB698A2A7C1144491C34
:10956000634A4318904204D940F21661702003F018
:10957000BFF86048814204DD40F21761702003F0BB
:10958000B7F85D48814204DA4FF4C361702003F0FC
:10959000AFF85A489842DCBF03F5F703A3F1F8533C
:1095A00005DD002BBCBFA3F5F70303F1F853184604
:1095B00002F03CF820F07F40391A0902CA1701EB8B
:1095C000126109123329BCBF333020F07F47049861
:1095D000381A0002C11700EB1160001203D40BB05F
:1095E0000020BDE8F08FD4E90010401A384427F07D
:1095F0007F4120F07F40C4E900100398DDF8288007
:109600006F4690F8205020200DF1040A8DF80000DC
:10961000202D1CBF354800EB881924D005EB4500F0
:1096200006EBC0002268C168511A0902CA1701EB93
:1096300012610830091216D4618971B1418961B98A
:1096400000F0D8FC01F0F2FF2168081A0002C117EF
:1096500000EB11600012332805DB09EB45003D707B
:109660004578202DDAD138788AF800002746202D59
:109670001CBF1E4800EB881B30D005EB450106EBF4
:10968000C1097968D9F808203846511A0902CA1761
:1096900001EB126109F10808091212D4B8F80A1096
:1096A000E1B14189D1B900F0A5FC01F0BFFFD8F8C4
:1096B0000010081A0002C11700EB116000123328D5
:1096C0000CDA8AF8005099F81400397B88427FF64A
:1096D00034AF0BEB45004578202DCED10BB00120E7
:1096E000BDE8F08F9C2200201C1F00201C220020BF
:1096F000FF7F841E0020A10700E05EF80080841E2A
:109700002DE9F05F04463C480E4600EB86003B4FD7
:1097100090F82050202098469246107007F5407926
:10972000202D18BF09EB861B28D000BF05EB450094
:1097300007EBC00000F10801C0682268101A00029F
:10974000C21700EB1260001218D4608978B1488902
:1097500068B9084600F04EFC01F068FF2168081A5D
:109760000002C11700EB11600012332806DB0BEB7F
:1097700045008AF800504578202DD7D19AF800008E
:1097800088F80000202D18BF09EB861A30D005EBB1
:10979000450107EBC1096168D9F808202046511A34
:1097A0000902CA1701EB126109F10806091210D467
:1097B0007189E9B14189D9B900F01CFC01F036FF8B
:1097C0003168081A0002C11700EB1160001233283B
:1097D0000EDA88F8005099F81400217B884202D8EC
:1097E0000020BDE8F09F0AEB45004578202DCED142
:1097F0000120BDE8F09F00009C2200201C1F0020DB
:109800002DE9F74F4FF0000898B016460D46C346B5
:1098100002F084F90446012D18BF022D05D040F650
:1098200093114FF0700002F063FFFD4901200860C2
:10983000FC498968086000200C90401E0E90FA498F
:1098400006EB460001EBC00308330FAF0FCB87E8F0
:109850000F000FA800F0CEFB0D90F348BDF8469026
:10986000B0F89C03ADF84C00B9F1000F14BF4FF0F5
:10987000010A4FF0000A0F981490BAF1000F09D0B6
:10988000EA4890F82C0028B902F0CEFE002808BF64
:10989000012700D00027E6480022159200781646DE
:1098A000012818BF032840D1E148B0F80280A8EB96
:1098B00009001590C84538D90D996FEA0803DFF8FB
:1098C00074E3C8180DF10C0C17AA714504D940F2C5
:1098D0001661702002F00CFFD7498B4204DD40F284
:1098E0001761702002F004FFD4498B4204DA4FF470
:1098F000C361702002F0FCFED1498142DCBF00F55B
:10990000F700A0F1F85005DD0028BCBFA0F5F70076
:1099100000F1F850614601F0A5FE03980F9920F080
:109920007F400390081A20F07F42002F18BF322694
:1099300004D19DF84C00002818BF0226B4F1807FA6
:1099400008D00F98001B0002C11700EB1160001235
:10995000012802DA042018990BE047B1B34890F8C7
:109960002D0020B19DF84C00061C18BF0226214690
:109970000120B9F1000F02D0159B1E2B02DA9DF8D1
:109980004C3013B14FF0010B401E8319A8489DF8CD
:109990004DE0007815900F98801A20F07F4CACEBCA
:1099A00001000002C61700EB16600012984218DB97
:1099B000002A18BFCDF83CC00F9E0597002701F084
:1099C000A7FF301A0002C11700EB116000123E28F9
:1099D0003FDA012D20D0701E059920F07F4019B389
:1099E0002DE082B1BEF1000F04BF159803280AD004
:1099F00027B99DF84C00002818BF9B1E00228DF847
:109A00004C209046C7E707BB9DF84C00E8B100200A
:109A10008DF84C009B1EBEE7B4F1807F20D140F64C
:109A20000C11702002F064FEB4F1807F07D0211A7F
:109A30000902CA1701EB12610912042903DD044669
:109A400001F06CFF0CE000290ADD1BB00020BDE82E
:109A5000F08F701E20F07F44204601F05FFF5746D4
:109A6000B4F1807F28D00F98DDF840C0001B8BF048
:109A70000103744A20F07F40ACEB040C2CF07F4CC7
:109A8000834298BFB0F5800FDFD26245DDD3204618
:109A900017F039F967490D9A01F1010C161AB6EB66
:109AA0009C0F24BF831AB3EB9C0F10D3B14208D292
:109AB000081A1044461C0AE040F62B21702002F0E0
:109AC00017FE99422CD2891A0844401C4642574836
:109AD000807F50B3284645464FF0000BD8460128FA
:109AE00005D0022002F062F9012002F05FF9A945D9
:109AF0002CD2A6EB05014FF001034FF003024FF00B
:109B0000020002F08BF8002808BF4FF00108B9F1FD
:109B1000000F35D00123A6EB09010322184623E0EC
:109B200040F60B31702002F0E3FDC14534BF4046E2
:109B30004846BBF1000F14BF00211E210844B0426B
:109B4000C8DB40F63E21702002F0D2FD10D901237F
:109B5000A6EB09010322184602F060F828B37DB194
:109B6000711B01230322022002F058F8E8B107E03C
:109B700055EA090004D040F67611702002F0B8FDD5
:109B8000012303223146002002F048F868B1012584
:109B9000B8F1000F03D014980F908DF84CB0DFF897
:109BA000A880BAF1000F0ED109E0022002F0FEF801
:109BB000012002F0FBF81BB00020BDE8F08F1B482D
:109BC00090F82D0000B14FB3DFF860A09AF82C0098
:109BD00018B102F0D3FB8AF82CB007B3A4F132001D
:109BE00020F07F414FF40020C8F80000002303223A
:109BF000052002F013F868B34FF08044052002F00E
:109C0000B5F91249C1F81005C1F814451049E01220
:109C10000860064C94F82D00E8B359E01BE01FE003
:109C200008050040140000201C1F00209C2200207A
:109C300016000020FF7F841E0020A10700E05EF8D0
:109C40000080841EFFFF3F0008F5014098F00140AE
:109C500004F5014033E0DFF8B4A09AF82C0048B3D3
:109C60002A4C94F82D0050B14FF40020C8F80000A1
:109C7000052002F09BF802F0E9FB84F82DB00DF10D
:109C80003008234898E8FE10C0F88013C0F88423F9
:109C9000C0F8883300E017E0C0F88C43C0F8905358
:109CA000C0F89463C0F89873C0F89CC31BB001203F
:109CB000BDE8F08F02F07EFB8AF82C508DE740F271
:109CC0005131702002F014FD02F0B2FB84F82D50E7
:109CD000A6EB0900A0F11901002904DC40F6682177
:109CE000702002F005FD03220123104601F096FFCB
:109CF00038B108488068C0F800B00748C0F800B024
:109D0000BDE740F67321702002F0F2FC9C22002097
:109D10001C1F002014000020080500402DE9F0431E
:109D2000064683B008789073CF7A5773887A107399
:109D30000889144650810D460A785F4999464FEAD2
:109D4000810C4B42ACF101085AB1C043D5F80480F4
:109D500004F1080288423DDD40F21761702002F0F4
:109D6000C7FCEE686D686FEA000904F1080206EBB3
:109D70000900464504D940F21661702002F0B8FC93
:109D80008945E9DC994528DB8445DCBF00F5F7000F
:109D9000A0F1F85005DD0028BCBFA0F5F70000F1E8
:109DA000F850214601F05EFC206820F07F417019D8
:109DB000401C2160002F08BF7A3003D0012F08BF5C
:109DC00044302DD101F032FC20F07F40606003B0C0
:109DD000BDE8F0830146984204DA4FF4C361702075
:109DE00002F086FC8445DCBFA1F1F450A0F5902080
:109DF00005DD0028BCBF01F1F45000F5902021469C
:109E000001F030FC2068002F20F07F4108F10100B4
:109E1000216008BF7A3008D0012F08BF443004D039
:109E200040F2BE61702002F063FC01F0FFFB20F005
:109E30007F416160608901AA694601F013FC1F48F7
:109E400090F82F10202923D00069401D20F07F407A
:109E5000D4E90021891A2060084420F07F40606026
:109E60004B4632462146E868FFF7D4FA00281CBF6B
:109E700003B0BDE8F083D4E90010401A304426F066
:109E80007F4120F07F40C4E9001003B0BDE8F083BB
:109E9000608906F1090720B102F0C6FB002808BF5F
:109EA0003237074841780098814284BF081A074436
:109EB00027F07F40CCE700000020A1079C22002073
:109EC0001600002010B5154C94F82F00202818BF5C
:109ED00010BD94F82E2004EB820090F82010202969
:109EE00017D0DFF83CC00CEB821303EB41035B7827
:109EF00080F82030012380F8233084F82B3084F858
:109F00002F10022000F0B0F8002084F82A00A0777B
:109F100010BD40F29E31702002F0EAFB9C2200202E
:109F20001C2200202DE9F05FDFF8B88098F82E5051
:109F300008EB850090F82140202C08BFBDE8F09F79
:109F4000DFF8A4B0DFF8A4A0AAF540790AEB8517E2
:109F5000072617F8140001280ED0042808BF02268F
:109F60000AD005280CBF0326062805D040F6D801E4
:109F70004FF0700002F0BCFBBBF1000F18BFAFF355
:109F80000080EFF3108072B607EB44014A7808EBCB
:109F9000850181F8212091F82220A24204BF2022CD
:109FA00081F82220B8B12A462146012000F05CF851
:109FB00004EB440109EBC10059F8312040683146F7
:109FC000904798F82E5008EB850090F82140202CFF
:109FD000BCD1BDE8F09F0648002818BFAFF3008051
:109FE00062B6E0E79C220020000000001C22002056
:109FF0000000000010B50446006816F084FE02461A
:10A000006089217A144B0844411C50189A4204D9A3
:10A0100040F21661702002F06BFB104A914204DDA1
:10A0200040F21761702002F063FB0D4A914204DA9E
:10A030004FF4C361702002F05BFB0A498142DEBF2E
:10A0400000F5F700A0F1F85010BD0028BCBFA0F546
:10A05000F70000F1F85010BDFF7F841E0020A1071B
:10A0600000E05EF80080841EDFF854C010B50023C5
:10A070000CEB821C07281ED2DFE800F00505050561
:10A080000404040001230CF81100002B08BF10BDCC
:10A090000C4800EB820292F8220020280EBF82F8C2
:10A0A00021100CEB4000417020200CEB4103587054
:10A0B00082F8221010BD40F26721702002F018FBD8
:10A0C0001C2200209C2200202DE9F34F83B05C4825
:10A0D000049900EB8100019090F8204003982546F8
:10A0E000012818BF022805D040F6AF214FF07000BC
:10A0F00002F0FEFA0027202D4AD051480091002698
:10A10000807F002808BF022601F002FCDFF838A19A
:10A1100004EB44010AEBC101DFF828918A68C968A1
:10A12000121A091A22F07F4221F07F41964298BF0D
:10A13000B2F5800F01D2894528D2444A009902EB3A
:10A14000811B22460BEB42014C78202C16D004EBED
:10A1500044010AEBC10CDCF80880DCF80CC0A8EB69
:10A16000000828F07F48ACEB000121F07F41464514
:10A1700098BFB8F5800FE4D28945E2D3202A05D0F4
:10A1800020210420009BFFF709F90446AC4215D1B9
:10A190002F48002818BFAFF3008001F0B9FB284C0E
:10A1A00094F8301020290DD0E168821C511A090260
:10A1B000CA1701EB12610912002903DD05B0002066
:10A1C000BDE8F08F202D0DD02A460399FFF718FB2C
:10A1D00058B3019880F8237084F8305005B00120FE
:10A1E000BDE8F08F94F82C0018B102F0C7F884F89D
:10A1F0002C7094F82D0050B116494FF400200860DF
:10A20000052001F0D3FD02F021F984F82D7004201F
:10A2100001F0CCFD01F032FE202084F830000E4821
:10A22000806807600D480760D8E72A46202104208F
:10A23000049BFFF7B3F805B00020BDE8F08F0000E5
:10A240009C220020FFFF3F001C1F00201C2200203A
:10A250000000000008F5014014000020080500403F
:10A26000064910B591F82F20202A1CBF887710BD11
:10A2700040F2FD31702002F03BFA00009C220020E9
:10A280002DE9F04F5B4E814685B096F82F008A4647
:10A2900020284DD096F82F0006F10C0400EB40006A
:10A2A000A6F5607808EBC00720208DF8000096F82E
:10A2B0002E0003AA06EB800001A990F82050306917
:10A2C00002903068484401F0CDF9F86801994A4A93
:10A2D0000844A9F1640191422FD8B968411A21F0CC
:10A2E0007F41B1F5800F28D220F07F40606030467A
:10A2F00084F80CA090F82E00EA46202D1CBF3F49A0
:10A3000001EB801B3CD005EB450008EBC007606803
:10A31000BA682146101A0002C21700EB126007F15A
:10A32000080600121BD4708950B3488948B127E051
:10A3300040F67331702002F0DBF905B00120BDE872
:10A34000F08F2046FFF756FE01F070F93168081AC9
:10A350000002C11700EB11600012332810DA8AF8EE
:10A360000050397D207B814205D80298606005B09D
:10A370000220BDE8F08F0BEB45004578202DC2D1BF
:10A38000052001F013FD1B4C4FF0FF30A06094F846
:10A390002E309DF800202021202A13BF052004EB39
:10A3A000830090F82000FEF7F9FF94F82E2013495F
:10A3B00001EB821194F82F2001EB420148702068D4
:10A3C00048442060012084F82B00607E012805D1DC
:10A3D0002069401E20F07F4001F03AFB9DF800000C
:10A3E000202803D00648407802F052FA05B0002039
:10A3F000BDE8F08F9C2200209C1FA1071C2200209A
:10A400001400002070B5234A92F82F10202939D06B
:10A4100092F82F10A2F5607301EB410103EBC10C20
:10A4200092F82E1092F82E4002EB810191F8201044
:10A43000A2F1800505EB8414202928D001EB410509
:10A4400003EBC5052D7D854284BF04EB41014978AE
:10A45000F2D801EB410103EBC101DCF80C00896883
:10A460001468081A0002C11700EB1160001207D42B
:10A4700016F049FC04F16401884224BF001B70BD42
:10A48000002070BD40F64C31702002F031F94FF0E1
:10A49000FF3070BD9C2200200246144B10B50844CA
:10A4A0009A4204D940F21661702002F021F9104A54
:10A4B000914204DD40F21761702002F019F90D4A53
:10A4C000914204DA4FF4C361702002F011F90A4995
:10A4D0008142DEBF00F5F700A0F1F85010BD002862
:10A4E000BCBFA0F5F70000F1F85010BDFF7F841E3F
:10A4F0000020A10700E05EF80080841E104A0B1ABD
:10A5000002F1010CB3EB9C0F3CBF1846704710B52D
:10A51000441AB4EB9C0F3CBF184610BD9A4203D2BC
:10A52000101A0844401C10BDA24204D2511A08441B
:10A53000401C404210BD40F60B31702002F0D8F8AC
:10A54000FF7F841E074991F83020824204BF48688B
:10A55000704700EB4000044901EBC0000830FFF7F2
:10A5600049BD00009C2200201C1F00200E4910B590
:10A5700091F82F00202812D091F82F00A1F56072D9
:10A5800000EB400002EBC00091F82F10406801EB97
:10A59000410152F83120BDE810400421104740F637
:10A5A000BB01702002F0A4F89C22002070B56A4D17
:10A5B0006A49012605F5607408287DD2DFE800F0BD
:10A5C000046197A9C643AEB394F82C0018B901F002
:10A5D000F1FE84F82C60E08A10B102F025F888B111
:10A5E000FFF770FC84F82960A168B1F1FF3F05D046
:10A5F00001230322052001F011FB40B1607E0128F8
:10A6000010D109E040F66F01702002F071F840F6B9
:10A610007401702002F06CF82069401E20F07F4029
:10A6200001F016FA94F82F0094F82F1000EB400078
:10A6300005EBC000406801EB410155F83120BDE851
:10A64000704001211047FFF73DFC4FF0FF30A06044
:10A6500094F8290080B194F82F0094F82F1000EBA3
:10A66000400005EBC000406801EB410155F8312086
:10A67000BDE870400621104740F68501702002F0C9
:10A6800037F8FFF71FFC84F8286001F0CDFF18B100
:10A6900094F82C0028B108E040F69501702002F0F3
:10A6A00027F801F087FE84F82C6094F82D0068B13B
:10A6B0004FF400202A4900E048E00860052001F03E
:10A6C00075FB01F0C3FE002084F82D0094F82F00E4
:10A6D00094F82F1000EB400005EBC000406801EB40
:10A6E000410155F83120BDE870400021104701F0CC
:10A6F0000FFCE08A10B101F097FF28B119480078EB
:10A70000032808BF667770BD4FF40A61702001F01E
:10A71000EFFF154806608868066070BD0878BDE8E0
:10A72000704002F0B5B8FFF7CDFB94F82F0094F815
:10A730002F1000EB400005EBC000406801EB410129
:10A7400055F83120BDE870400521104740F6B301AF
:10A75000702001F0CDFF00001C1F0020140000201D
:10A7600008F501401600002008050040034810B518
:10A77000407816F0C8FA80B210BD00001600002024
:10A780002DE9F34F8246D1488BB00068D04DC0050B
:10A79000C00D0ED0103840B20028B8BF00F00F0036
:10A7A00000F1E020ACBF90F8000490F8140D4009CF
:10A7B0000DD00C984FF0000B0078002818BF01282E
:10A7C00018D040F25C714FF0700001F091FF95F8E5
:10A7D0002F004FF0010B202807D00C98007848B1CB
:10A7E0004FF4EB61702001F083FF40F2557170204F
:10A7F00001F07EFFB74C24B1002140F25F70AFF34F
:10A800000080B5490AEB4A0001EBC0004FF0010897
:10A81000009024B1002140F26770AFF30080B8F1DE
:10A82000000F09D095F82E604FF0000985F82B90A5
:10A83000BBF1000F07D02EE0A848002818BFAFF3E7
:10A84000008062B6EEE73746012020EA0706A448FA
:10A85000402200EB871100EB861016F0C2FB24B1FA
:10A86000002140F2DA50AFF3008005EB870105EBE1
:10A870008600096A016224B1002140F2DE50AFF384
:10A88000008024B1002140F27170AFF3008095F890
:10A890002B000028BDD124B1002140F27B70AFF322
:10A8A000008001F035F88046334606AA0C99FFF780
:10A8B00035FA24B1002140F28270AFF3008088495C
:10A8C00006A801EB861717F81A10012918BF0229EC
:10A8D0003ED10699079BA1EB0801824A21F07F41F6
:10A8E000A3EB080323F07F4302296AD3B1F5800F5D
:10A8F00067D29A4265D34FF0010901AB05AA3146F0
:10A90000FEF7FEFE002864D09DF814109DF8042088
:10A9100033468A4261D00520FEF740FD4FEA000130
:10A9200007EB4A0041709DF81400202803BF05EB97
:10A93000860080F820A080F8239007EB400018BF25
:10A9400080F801A0324651465FF00300FFF78CFB10
:10A9500005EB860090F8237024B1002140F2897045
:10A96000AFF300806048002818BFAFF30080EFF31A
:10A97000108872B624B1002140F28F70AFF30080CE
:10A9800095F82B0000287FF444AF24B1002140F259
:10A990009770AFF300800DF1180E00989EE80E102E
:10A9A00000F10800B9F1000F80E80E1042D024B188
:10A9B000002140F2A470AFF30080BBF1000F2BD157
:10A9C00015E0324651460420FFF74EFB4FF00109D7
:10A9D000BEE7324651460420B8E7202919BF07EBED
:10A9E0004100417805EB860090F8201098E79FB170
:10A9F00095F82F0020280FD124B1002140F2A97032
:10AA0000AFF3008031460220FFF75EFB20B90C98BF
:10AA10000078E8B3012849D024B1002140F2C67083
:10AA2000AFF3008085F82E60012085F82B0000BF71
:10AA30004FF0010924B1002140F2CF70AFF3008044
:10AA4000B8F1000F3BD024B1002140F2D370AFF336
:10AA50000080B9F1000F11D095F82E0005EB8000B1
:10AA600090F82100202809D024B1002140F2DA70AA
:10AA7000AFF300801D48407801F00AFF24B10021A7
:10AA800040F2DF70AFF300800DB04846BDE8F08FB4
:10AA9000FFE724B1002140F2B170AFF3008095F8D8
:10AAA0002E2051460420FFF7DFFAC1E7002C3FF4C7
:10AAB000B0AE002140F2BC70AFF30080A9E60748B9
:10AAC000002818BFAFF3008062B6BCE704ED00E0D9
:10AAD0009C220020000000001C1F0020000000003D
:10AAE0001C220020FFFF3F00000000001400002097
:10AAF0002DE9F14FA34886B00068C005C00D11D004
:10AB0000103840B20028B8BF00F00F0000F1E0207C
:10AB1000ACBF90F8000490F8140D400908BF4FF046
:10AB2000010901D04FF000090698007800284FF085
:10AB300000001CBF07B0BDE8F08FDFF84CA2934DBA
:10AB4000934C4FF0000B049025B1002140F265605A
:10AB5000AFF3008094F82E6084F82BB04FF000081B
:10AB600025B1002140F26A60AFF30080B9F1000F17
:10AB70001DD13746012020EA07068648402200EB17
:10AB8000871100EB861016F02CFA25B1002140F257
:10AB9000DA50AFF3008004EB870104EB8600096A0A
:10ABA000016225B1002140F2DE50AFF3008025B1F3
:10ABB000002140F27260AFF3008000F0A9FE07466A
:10ABC00033466A460699FFF7A9F825B100214FF4EC
:10ABD000CF60AFF3008094F82F00202814D02069B4
:10ABE0000099091A0902CA1701EB126109120BD563
:10ABF000DDE90021891A20F07F42084420F07F40DF
:10AC0000CDE900204FF001084DB1002140F28260F3
:10AC1000AFF3008000214FF4D160AFF300800098C3
:10AC20000199C01BC91B20F07F4021F07F41B0F586
:10AC3000800F05D28A4503D3B9F1000F0CD103E090
:10AC4000B9F1000F38D094E033463A46694652488D
:10AC5000FEF7E0FB48EA0008B8F1000F22D00098A8
:10AC600016F051F8BDF80A109DF808204B4B11441E
:10AC7000491C4218984241D8474881425ADC404218
:10AC800081425FDB581C9042DCBF02F5F702A2F163
:10AC9000F85205DD002ABCBFA2F5F70202F1F85216
:10ACA0000698C26001200490002D62D0002140F27D
:10ACB0009B60AFF300805CE0BDF80A0005AA04A920
:10ACC00000F0D0FC94F82F0020281CD02069401DF3
:10ACD00020F07F40DDE90021891A014421F07F4105
:10ACE000CDE9000116F00FF8BDF80A109DF8082014
:10ACF0002A4B1144491C4218984218D940F2166157
:10AD0000702001F0F5FCBDF80A0007F1090620B13A
:10AD100001F08AFC002808BF3236214841780498A7
:10AD2000814284BF081A064426F07F40D2E71A48C1
:10AD3000814204DD40F21761702001F0D9FC19480E
:10AD4000814204DA4FF4C361702001F0D1FC16484F
:10AD50009042DCBF02F5F702A2F1F85205DD002AAD
:10AD6000BCBFA2F5F70202F1F8520698C2600120BA
:10AD7000049094F82B0000287FF4E6AE049807B006
:10AD8000BDE8F08F04ED00E0FFFF3F000000000091
:10AD90009C2200201C2200200020A107FF7F841E8F
:10ADA0001600002000E05EF80080841E2DE9F14FBF
:10ADB000804D8CB095F82E000020099001207E4C2B
:10ADC0004FF00008A5F180078346089024B10021C8
:10ADD00040F2EE70AFF30080089890B385F82B80B6
:10ADE00024B1002140F2F370AFF3008095F82E906B
:10ADF00040222BEA090607EB861007EB89118246F1
:10AE000016F0EFF824B1002140F2DA50AFF30080E1
:10AE100005EB860005EB89010090096A016224B107
:10AE2000002140F2DE50AFF3008095F82B0080B196
:10AE3000002C1CBF002140F2F970C7D0AFF3008096
:10AE4000C4E7FFE75D48002818BFAFF3008062B693
:10AE5000C4E724B1002140F2FD70AFF300800C98EC
:10AE60001AF81000032878D1DDF80090CDF818907A
:10AE70000C9999F82000884214BF4FF0000A4FF057
:10AE8000010A09F1200C8646202207EB861303E015
:10AE9000024603EB42004078884202D020280AD0C4
:10AEA000F6E7202807D0864507D103EB4E0040780F
:10AEB0008CF8000007E040460CE003EB400003EB99
:10AEC00042014078487024B1002140F24450AFF371
:10AED0000080584610EA0A0F18BF89F823B0E0B383
:10AEE00024B1002140F60200AFF300803246012079
:10AEF0000C99FFF7B9F8069890F8239024B1002137
:10AF000040F60D00AFF300802D48002818BFAFF3C6
:10AF10000080EFF3108072B6089024B1002140F653
:10AF20001200AFF3008095F82B0038B1002C1CBF45
:10AF3000002140F616003FF449AF7FE7B9F1000F5A
:10AF400008D095F82F00202804D131460220FFF7C1
:10AF5000BBF8F8B134B1002100E009E040F62A0066
:10AF6000AFF3008085F82E6085F82BB001200990A2
:10AF700024B1002140F63300AFF30080089888B177
:10AF800024B1002140F63700AFF3008009980DB0DE
:10AF9000BDE8F08F002CF1D0002140F62500AFF382
:10AFA0000080E6E70548002818BFAFF3008062B6CE
:10AFB000E6E700009C2200200000000000000000E6
:10AFC00000000000202824BF0020704700EB400054
:10AFD000034B43F8301003EBC00042600120704780
:10AFE0001C1F002010B5202811D20E4991F82E30D8
:10AFF000A1F1800202EB831C1CF810303BB191F8E8
:10B000002E3002EB831212F81020012A01D000200A
:10B0100010BD91F82E2001460020FFF725F80120F1
:10B0200010BD00009C2200202DE9F05F7E4E80467E
:10B0300096F82E00A6F1800707EB801010F8180094
:10B04000002865D096F82E90784D25B1002140F665
:10B05000B930AFF3008007EB891414F81800012809
:10B0600018D0C0B204281CBF0528062855D02DB121
:10B070004FF0000140F6C530AFF3008001F05EFCF8
:10B0800025B1002140F6C930AFF3008014F8180054
:10B090000128E6D1012425B100214FF43D60AFF332
:10B0A0000080A4B3002086F82B0025B1002140F6D3
:10B0B000D530AFF3008096F82EB0012020EA0B09BE
:10B0C00007EB8B1107EB8910402215F08AFF25B1A1
:10B0D000002140F2DA50AFF3008006EB8B0006EB64
:10B0E000890A006ACAF8200025B1002140F2DE502A
:10B0F000AFF3008096F82B00E0B1002D1CBF0021BB
:10B1000040F6DB30C7D000BFAFF30080C3E70AE0F2
:10B110004FF43B61702001F0EBFA4A4641460120B2
:10B12000FEF7A2FFACE74248002818BFAFF300804B
:10B1300062B6B7E725B1002140F6DF30AFF30080FB
:10B140009AF821300AF1210140461C464FF0200BAD
:10B1500007EB89120AF1220A04E0A34602EB4B0C2A
:10B160009CF80140844202D0202C2BD0F5E7202C03
:10B1700028D0A34204D102EB43004078087005E0D8
:10B1800002EB440002EB4B0140784870BAF1000F2B
:10B1900011D025B1002140F23C50AFF300809AF865
:10B1A0000000A04207D125B1002140F23F50AFF38B
:10B1B00000808AF800B05DB1002140F24450AFF346
:10B1C000008000E025B1002140F6E330AFF30080BD
:10B1D0001848002818BFAFF30080EFF3108472B650
:10B1E00096F82B0038B1002D1CBF002140F6E93045
:10B1F0003FF451AF88E786F82E90012086F82B00A7
:10B2000054B1002D08BFBDE8F09F002140F6F63094
:10B21000AFF30080BDE8F09F0548002818BFAFF3EA
:10B22000008062B6EDE700009C22002000000000D4
:10B23000000000000000000070B50D46064601F059
:10B24000E1F90F4890F82E200024803800EB82109E
:10B2500010F8141029B1611CCCB2202CF8D3202096
:10B2600070BD084804EB440140F8316000EBC100B8
:10B27000214645600120FEF7F7FE204670BD000024
:10B280009C2200201C1F00202DE9F04F83B000F00D
:10B290003FFB054600F0F2FD634CA068B0F1FF3FB4
:10B2A0001CBF4FF0FF30A060A07FDFF880B1A8B9CD
:10B2B000D4E90301081A0002C11700EB1160001263
:10B2C0004FF40C7115F04CFD21690844281A000256
:10B2D000C11700EB11600012C00F0BD0607EE8B107
:10B2E00000F022FC94F82A00F0B140F254417020A2
:10B2F00001F0FEF994F82F0094F82F1000EB4000B5
:10B300000BEBC000406801EB41015BF831200821E4
:10B31000904740F24341702001F0EAF9E81C20F028
:10B320007F4000F0FBFADDE74FF0010A84F82AA025
:10B3300094F82F00202824D094F82F80202084F81F
:10B340002F0084F83000002684F8286084F82960F3
:10B35000374826600078022816BF03280120002005
:10B36000207794F82E7004EB870999F820002028A4
:10B3700031D000EB40000BEBC000817D012905D0EE
:10B3800029E040F25741702001F0B2F9AB4600F1DC
:10B390000805408A01AA694600F064F994F82F0074
:10B3A000202804D02069401D20F07F400BE06889F0
:10B3B0000BF1090B28B101F037F9002808BF0BF198
:10B3C000320B2BF07F40D5E90021891A2860084410
:10B3D00020F07F40686039460120FEF775FE0028A6
:10B3E000F9D0144800EB871010F81800022804D197
:10B3F0003A4641460620FEF737FE84F82BA099F81E
:10B400002100202803D00C48407801F041FA207F29
:10B41000002804BF03B0BDE8F08F00F079FD267767
:10B42000667703B0BDE8F08F9C2200201C1F00202F
:10B43000160000201C2200201400002010B5304C03
:10B4400082B094F82F10202908D0A168B1F1FF3FF5
:10B4500009D040F6E821702001F04AF940F6E721D2
:10B46000702001F045F962680146264B50189A4257
:10B4700004D940F21661702001F03AF9224A914253
:10B4800004DD40F21761702001F032F91F4A914249
:10B4900004DA4FF4C361702001F02AF91C4981429B
:10B4A000DCBF00F5F700A0F1F85005DD0028BCBFB7
:10B4B000A0F5F70000F1F85001AA694600F0D2F8B3
:10B4C0009DF804000F288CBF01200020009908443B
:10B4D00020F07F41A16094F82900002804BF02B049
:10B4E00010BD01230322052000F098FB00281CBF9B
:10B4F00002B010BD4FF42F61702001F0F9F8000088
:10B500009C220020FF7F841E0020A10700E05EF83F
:10B510000080841E70B51E4C202184F8201084F811
:10B52000211084F82210002084F8230084F82E00D3
:10B5300084F82F10421EA2602060A07784F82800B3
:10B5400084F829002077607784F83010114984F856
:10B550002C0084F82D00087048704880A4F1820106
:10B560001022887001F8040F521EFAD10A4D0126EC
:10B5700084F82A60FF202870084801F06BF9687091
:10B5800001F0C6F9A86000F00BFD84F8316070BDD1
:10B590009C2200201600002014000020259F01009E
:10B5A00070B50546012000FA05F40E46002A08BFD2
:10B5B00008480CD0002000F0D9FCE90001F18041DE
:10B5C00001F5F831C1F81005C1F8146502480460AE
:10B5D00070BD000008F5014004F5014070B5044657
:10B5E0001546084615F084FB0F4A011B02F1010CB9
:10B5F000B1EB9C0F24BF231AB3EB9C0F0BD38A42F1
:10B6000003D2111B0844411C05E09A4207D2101ACC
:10B610002044401C414201F10F00281A70BD40F641
:10B620000B31702001F064F8FF7F841E410B48F25B
:10B63000376251430A0C094B510202FB03020848CE
:10B64000504300F586306E30400D5B4210FB03F333
:10B65000B2EB532F88BF491C08447047F7C2FFFF65
:10B660006F0C0100430B48F2376C03FB0CF330B452
:10B670001B0CDFF844C05C0203FB0C030F4858436B
:10B680004FEA505C04EB0C0043F609541CFB04F435
:10B6900004F5807C43F60855A3EB5C2C2C440CF09D
:10B6A000FF0CB3EB542F84BF4FF0000C401C08601C
:10B6B00082F800C030BC7047F7C2FFFF6F0C01007A
:10B6C0002DE9F041384CD4F80403DFF8E08010F4A1
:10B6D000803F4FF400664FF0E0274FF000051CBF9D
:10B6E000D4F84001002817D0C4F84051C7F8806250
:10B6F0002F480068D8F80010A0EB010020F07F4030
:10B70000022802D3B0F5800F06D34FF48030C4F87E
:10B7100008030420FEF74AFFD4F8040310F4003FA6
:10B720001CBFD4F84401002817D0C4F84451C7F80E
:10B73000806220480068D8F80010A0EB010020F0DB
:10B740007F40022802D3B0F5800F06D34FF40030BB
:10B75000C4F808030520FEF729FFD4F8040310F409
:10B76000802F1ABFD4F848010028BDE8F081C4F842
:10B770004851C7F8806210480068D8F80010A0EB64
:10B78000010020F07F40022804D3B0F5800F38BFBD
:10B79000BDE8F0814FF48020C4F80803BDE8F04113
:10B7A0000620FEF703BF000000B0004004B50040D3
:10B7B00040B5004044B5004048B500402DE9F04197
:10B7C0003A4D287804286CD0E81C0122017859B140
:10B7D000012908BF6A7002D0697800295CD0022173
:10B7E0000170407800F0E2FA314CD4F804034FF0D5
:10B7F000000810F4002F4FF480764FF0E0271CBFB4
:10B80000D4F84C01002808D04FF0030000F0CEFA25
:10B81000C7F880620320FEF7C9FED4F8040310F4D1
:10B82000802F1CBFD4F84801002808D04FF0020038
:10B8300000F0BCFAC7F880620220FEF7B7FED4F829
:10B84000040310F4003F1CBFD4F84401002808D0C2
:10B850004FF0010000F0AAFAC7F880620120FEF75D
:10B86000A5FED4F8040310F4803F1ABFD4F84001B9
:10B870000028BDE8F0814FF0000000F097FAC7F80B
:10B88000806204202870C5F80880C4F80082BDE8F2
:10B89000F0410020FEF78ABE40F266316C2000F0D5
:10B8A00027FFBDE8F0410720FEF780BE2000002002
:10B8B00000800040012213024FF0E0210020C1F877
:10B8C000803101F5C071BFF34F8FBFF36F8FC1F8A7
:10B8D00000310C494A60431EC1F808330A4B186016
:10B8E000C1F840011B1D1860C1F844011B1D186000
:10B8F000C1F848011B1D1860C1F84C010A610349D9
:10B9000048707047008000404085004020000020C3
:10B91000014800687047000004B500402DE9F05F61
:10B92000414E0446F71E96F800C0F868BCF1010FBE
:10B9300004BFA042BDE8F09F4FF040413B4A116078
:10B940003B496FF48023C1F808333A4A4FF00005B1
:10B95000BCF1000F57D06FF4A023C1F84833156035
:10B96000C1F84451D1F848214FF0E0294FF00108C7
:10B97000002A04BF4FF40062C9F880224FF48033DC
:10B98000C1F80833C1F84833C1F840512A4AD2F807
:10B9900000A0A4EB0A0A2AF07F4BBBF1020F3CD3B4
:10B9A0004FF0020ABBF5800F37D2C1F84045C1F80D
:10B9B0004433BCF1000F05D01168411A21F07F41DA
:10B9C0000229F9D3C7F808803D70FFF773FF1B48C1
:10B9D0000560001DC0F800A019490420086019493D
:10B9E000C1F80C80BA68C1F800228101C9F8801240
:10B9F000C9F80011144A41071160FC60707086F8A4
:10BA00000080BDE8F09FC1F84833104B1D60C1F8BD
:10BA100040511560C1F84451A4E7C1F8405540F2C7
:10BA2000EF116C2000F064FE2300002008F50140B7
:10BA300000B0004044B5004004B50040048500401B
:10BA4000108500400080004004F5014040B50040F2
:10BA50002DE9F0412B4CE168814214BF0122002204
:10BA6000DFF8A4C09CF80070022F02D0002A38D062
:10BA700003E0002A08BFBDE8F081627882B3234B5F
:10BA80004FF080421A60224B9513C3F80853C3F855
:10BA900048530026C3F840611E4AD2F80080A0EB4C
:10BAA000080828F07F48B8F1020F24D3B8F5800FBA
:10BAB00021D2C3F84005C3F844532FB11368CB1A01
:10BAC00023F07F43022BF9D3134B02214A071A605C
:10BAD000E06004208CF801008CF80010BDE8F081D3
:10BAE00004E040F2FD116C2000F002FE40F2012162
:10BAF0006C2000F0FDFDC3F8406540F20D216C2084
:10BB000000F0F6FD200000202300002008F5014091
:10BB100000B0004004B5004004F501400148C06891
:10BB200070470000200000202DE9F04133486FF4F9
:10BB30008024C0F80843DFF8C8C0324A00219CF8CE
:10BB4000003063B16FF4A024C0F848431160C0F81E
:10BB5000441100BFD0F84801012280B909E0C0F8C3
:10BB60004843294C2160C0F840111160C0F84411CD
:10BB7000F0E74FF0E0244FF40060C4F88002022B9D
:10BB800004D040F219216C2000F0B2FD1F4E306845
:10BB90001F4CC01C20F07F40E3681E4D98420BD024
:10BBA0003768DF1B27F07F47042F05D3B7F5800FD9
:10BBB00002D2FFF7B3FE1BE03068181A20F07F4076
:10BBC000022813D3B0F5800F10D2134B4FF08040F2
:10BBD0001860A26021706A60EA604000191F086066
:10BBE00004208CF801008CF8002001E0A260217094
:10BBF000A068C5F80002BDE8F081000000B0004078
:10BC00002300002044B5004040B5004004B500408A
:10BC1000200000200080004008F501402DE9F04799
:10BC2000DFF874C101274FF000089CF800509CF821
:10BC300001C007287ED2DFE800F0040404046A6A29
:10BC40006A00564CE668B6F1807F04BF6478002C29
:10BC500002D0022D05D03CE04FF413716C2000F0AF
:10BC600047FD4FEA8C0404F18046ACF1040424063D
:10BC7000A40D04F1804906F5004609F53049002479
:10BC8000012D02D0022D11D020E0BCF1040F05D20D
:10BC9000D6F840A1BAF1000F18D104E0D9F840A1BC
:10BCA000BAF1000F12D14FF000440FE0BCF1040FC5
:10BCB00005D2D6F840A1BAF1000F07D104E0D9F8B7
:10BCC00040A1BAF1000F01D144F0804414F0804F3C
:10BCD000D5D1334C00F1100C07FA0CFCC4F808C3A2
:10BCE0008000204452B10764D0F840658D1B25F0D8
:10BCF0007F45AA4298BFB5F5800F43D2C0F84015E2
:10BD0000012B08BFC4F804C30120BDE8F08735B19A
:10BD1000844504D140F26F216C2000F0E9FC001F43
:10BD2000C0B2012B0CBF01240024032806D340F22B
:10BD3000491100E02BE06C2000F0DAFCDFF864C071
:10BD400000F1100307FA03F3CCF80833CCF84833BA
:10BD500080006044C0F840814AB1134D2E688D1BAD
:10BD600025F07F45AA4298BFB5F5800F0AD2C0F8EA
:10BD70004015002C18BFCCF80433CCF84433012014
:10BD8000BDE8F087C0F840850020BDE8F0874FF49B
:10BD90001D716C2000F0ACFC23000020200000206E
:10BDA0000080004000B0004004B50040F8B5012715
:10BDB000002407284CD2DFE800F00404040416161F
:10BDC0001600264A00F1100107FA01F1C2F8081323
:10BDD00081001144C1F84045C1F84041204951F863
:10BDE00020000090F8BD1F4D011FCEB2297879B117
:10BDF0006A7882420CD11C4A4FF040401060012901
:10BE000008BFFFF757FD2C7018494FF08070C860CD
:10BE100006F1100007FA00F11548C0F80813C0F841
:10BE20004813B00000F1804000F53040D0F84015D4
:10BE3000104A1268891A21F07F41022924BFC0F8F4
:10BE40004045C0F840410C4850F826000090F8BD2D
:10BE500040F2ED216C2000F04BFC0000008000401F
:10BE6000408100402300002008F501402000002010
:10BE700000B0004004B5004040B100401E496FF4DE
:10BE80008023C1F808331D481D4A90F800C00020E7
:10BE9000BCF1000F0AD06FF4A023C1F84833106042
:10BEA000C1F84401D1F8481181B909E0C1F848331B
:10BEB000144B1860C1F840011060C1F84401F1E76B
:10BEC0004FF0E0224FF40061C2F880120E494FF0AB
:10BED000FF32C1F808230D4A1060C1F84001121D5D
:10BEE0001060C1F84401121D1060C1F84801121D14
:10BEF0001060C1F84C01704700B0004023000020E2
:10BF000044B5004040B500400080004040850040FE
:10BF1000084890F902000028B8BF704700F01F01E0
:10BF2000012202FA01F14009800000F1E020C0F88E
:10BF3000001270472000002010B507280DD2DFE85E
:10BF400000F00404040406060600064902E0001F8F
:10BF50000549C0B201EB800010BD4FF426716C2082
:10BF600000F0C6FB4081004040B1004010B50728FA
:10BF70000DD2DFE800F004040404060606000649BA
:10BF800002E0001F0549C0B201EB800010BD4FF474
:10BF900026716C2000F0ACFB4081004040B10040B5
:10BFA00070B51948002404210470C01E0170890571
:10BFB000C160FFF77FFC01254FF0E02CEB02CCF8CD
:10BFC0008031BFF34F8FBFF36F8FCCF880320F4AB1
:10BFD000556095600E4801680029FCD1481EC2F8E2
:10BFE0000803C2F848030B480460C2F84041001D32
:10BFF0000460C2F84441001D0460C2F84841CCF816
:10C000000031156070BD00002300002000B000402A
:10C0100004B5004040B500402DE9F041164C607A6F
:10C02000002827D04FF480718D05284614F0BCFEFF
:10C0300080464FF48271284614F0B6FE002607466B
:10C04000B8F1000F09D00120C5F80803207920B10C
:10C050002671E06908B18047E66137B1C5F804612F
:10C060000220C5F8080300F08BFA4046BDE8F04115
:10C0700000F05AB8BDE8F0813000002010B514F08F
:10C080003DFF30B914F05BFF18B914F08EFF0028A3
:10C0900002D002490220086010BD0000340C0040AC
:10C0A00070B500F087F900F0BFFA094C4FF08045F9
:10C0B00030B1FFF7E3FF012028610420A07204E003
:10C0C0000320A0720120C5F804030020E07170BDB8
:10C0D0003000002070B5134CA079F0B1012803D0D6
:10C0E000E179401E814218DA00F09EFA054600F020
:10C0F0006FFBA179012902D9E179491CE1710DB1E8
:10C10000616900E02169411A022902DA11F1020F86
:10C1100007DC0DB1606100E02061BDE87040FFF711
:10C12000BFBF70BD300000202DE9F04706464FF03C
:10C1300080454FF48671284614F036FE80464FF451
:10C140008871284614F030FE274C8246277804F187
:10C15000080014F09DFE10B14FF4D57116E04FF0B9
:10C16000010946B1A07A032805D10420A072FFF787
:10C1700085FFC5F810900026B8F1000F18D0C5F85B
:10C180000C61A07A042804D04FF4DE716D2000F019
:10C19000AFFA14F0B3FE28B914F0D1FE10B914F0C0
:10C1A00004FF08B1114806600220A07200F0E6F812
:10C1B000BAF1000F08D0C5F81061A07A022801D1A9
:10C1C000FFF788FFC5F814903FB12670A07A0228C7
:10C1D00001D1FFF765FF00F0D1F8BDE8F047024854
:10C1E000083014F06CBE000030000020340C004019
:10C1F0002DE9F0475C4C4FF000080646C4F8188063
:10C20000437882780078E07263710127A271BD07DC
:10C2100084F80780052824D2DFE800F00F03051F0B
:10C220002100A76109E000F0C5F80121284614F0BB
:10C23000C0FD0028F9D00220A06114F0E6FDB0B1E5
:10C2400000F00CFA217E01F0030188420FD1B07991
:10C2500050B10220C5F804036AE04448ECE74448C2
:10C26000EAE74FF44C7149E000F0CCF960E0EF6090
:10C270004FF4827AC5F80481A069C5F8180514F056
:10C2800029FE40B914F030FE28B914F044FE10B96C
:10C2900014F055FE38B14FF080513648D1F84412B1
:10C2A000C1F34231016014F015FE40B914F01CFED8
:10C2B00028B914F030FE10B914F041FE10B12D4829
:10C2C00010300760AF600220C5F80403B07978BB76
:10C2D000D5F8040310F0020F0ED0DFF89C90D9F8C7
:10C2E0000010C94341F30017D9F8001041F01001C4
:10C2F000C9F800107F1C07E040F2F1216D2000F02A
:10C30000F7F900BF00F01AFB5146284614F04CFD27
:10C310000028F7D000F076F92FB9D9F8001021F0F5
:10C320001001C9F800100220C5F80803C5F80481FF
:10C33000A07970B1307860B900F076F9064600F067
:10C3400047FA6FF0004216B1C4E9042001E0C4E9E5
:10C3500004020121284614F02CFD08B100F05EF91A
:10C3600084F80A80BDE8F087300000200100020058
:10C37000010003003C05004010ED00E010B5EFF3B4
:10C38000108472B60A48417829B14178491E41703B
:10C39000417829B108E040F20D116D2000F0A8F9B4
:10C3A000807808B900F04EF9002C00D162B610BDBB
:10C3B0003000002010B5EFF3108472B606484178C3
:10C3C000491C41704078012801D114F009FD002C6E
:10C3D00000D162B610BD000030000020054810B545
:10C3E000C17821B100210171C170FFF7C7FF0020A2
:10C3F00010BD00003000002070B50C4CE17861B930
:10C400000125E570E061FFF7D5FF00F00DF930B1CF
:10C41000E06910B180470020E061002070BD4FF05E
:10C4200080402571C0F80453F7E700003000002079
:10C43000EFF3108072B604498A78521C8A70002883
:10C4400000D162B6704700003000002010B5EFF355
:10C45000108472B60A48817829B18178491E8170AA
:10C46000417829B108E040F225116D2000F040F933
:10C47000807808B900F0E6F8002C00D162B610BD53
:10C48000300000202DE9F04104006FF015003CD091
:10C490002178042939D80029617838D0002934D18D
:10C4A000A178002931D1002014F049FC002014F0BB
:10C4B00039FC4FF080484FF0FF31C8F808130026D0
:10C4C000C8F80061C8F80461C8F80C61C8F81061C8
:10C4D000144F7E70A088B88114F079FC012508B152
:10C4E000FD707D700121404614F063FC08B100F03E
:10C4F00095F82046FFF77CFE7D72002014F012FCB8
:10C500004FF0E0213046C1F80051BDE8F08100292C
:10C51000FBD02029F9D8A1782129F6D80129C2D148
:10C52000F3E70000300000200148808970470000D8
:10C530003000002010B50D4814F0AAFC0B49083952
:10C5400048B1012008704FF0E021C1F80002BDE8B9
:10C550001040FFF72FBF887A022801D1FFF7A0FD16
:10C56000BDE81040014814F0AABC000038000020CB
:10C570000248807A002800D0012070473000002057
:10C58000F8B51F4DE87A00280FD1287E00F003008F
:10C5900014F02BFC002808D0EFF3108172B6FFF7DF
:10C5A000E7FF18B1002900D162B6F8BD0126AE72CE
:10C5B00001B962B618204FF08044C4F80803A661A0
:10C5C0004FF42070ADF80000BDF80000411EADF83A
:10C5D0000010F9D20027C4F80C71C4F81071084893
:10C5E000083014F068FC2F70FFF75AFD6661687917
:10C5F00000F07F00C4F838051820C4F80403F8BD23
:10C600003000002010B5044C207E00F0030014F030
:10C61000ECFB0028F8D010BD3000002001490120BB
:10C6200008707047FC0300204FF08040D0F80001F4
:10C6300018B903480078002800D001207047000096
:10C64000FC0300204FF08040012141600021C0F830
:10C650000011014801707047FC0300200248006887
:10C6600000F00300704700001C04004010B531B119
:10C67000012907D04FF4427105A000F00FF8D0F85F
:10C68000140401E0D0F8080400F0010010BD00001F
:10C690006E72665F636C6F636B2E6800024A52684D
:10C6A00002B11047FEE7000050000020064810B518
:10C6B0000021016001210160084614F0BDFBBDE8C6
:10C6C0001040012014F0ABBBFC1F0040074810B520
:10C6D00001214160891EC0F808130C2014F0ACFB46
:10C6E000BDE810400C2014F09ABB000000C00040D0
:10C6F000FEB5104A5568E5B1002203466E460A248D
:10C7000003E0B0FBF4F0521CD2B20028F9D1B054CF
:10C710000AE000BFB3FBF4F004FB1030B3FBF4F30A
:10C72000521ED2B23030B054002AF3D13046A8475E
:10C73000FEBDFEE75000002070B5174C06460D46C2
:10C74000607810B14FF0FF3070BD06B9134E6260D3
:10C750002570FFF7ABFFFFF7B9FF3046FFF792FEFA
:10C760000600F1D1FEF7D6FEFFF70AFF14F027FA14
:10C77000284614F054FB0120002D09DB05F01F01B1
:10C7800000FA01F16A09920002F1E022C2F80011F8
:10C790006070304670BD0000500000205A0E03004B
:10C7A000014840787047000050000020074890F989
:10C7B0000000002809DB00F01F0201219140400920
:10C7C000800000F1E020C0F8001270475000002007
:10C7D0002DE9F04101264FF0E02231034FF000082F
:10C7E0004046C2F88011BFF34F8FBFF36F8F164CD6
:10C7F000C4F800010C2014F03EFB144D2868C0431F
:10C8000040F30017286840F010002860C4F8046363
:10C8100026607F1C02E000BF00F090F8D4F8000111
:10C820000028F9D01FB9286820F0100028600848B7
:10C8300005686660C4F80863C4F800810C2014F031
:10C840001AFB2846BDE8F08100C0004010ED00E072
:10C8500008C5004010B5024605200C4904E000BFA1
:10C8600001EBC0031B7933B1401EC0B2F8D24B219B
:10C870006920FFF73DFF41F8302001EBC0010022A5
:10C880004A718A7101220A7110BD0000D022002075
:10C8900010B5052801D35A2106E00A4901EBC00072
:10C8A0000179012903D05B216920FFF721FF41793C
:10C8B0008279491CC9B28A4200D04171BDE810405A
:10C8C000FFF774BFD022002070B505250E4E0F4C27
:10C8D00016E0217806EBC1000279012A08D14279DD
:10C8E00083799A4204D04279827156F831008047A8
:10C8F0002078401CC0B22070052801D30020207091
:10C900006D1EEDB2E5D270BDD0220020FD030020E7
:10C9100000B514F0DFFA40B914F0E6FA28B914F0C3
:10C92000FAFA10B914F00BFB08B1024800BD024836
:10C9300000BD00000C05004000E7014010B514F0F8
:10C94000FEFA30B3EFF31080C8B1002172B612487E
:10C9500002680368C2F3001243F0100303604FF053
:10C96000E023D3F80042D3F804321C4300D040BF88
:10C9700020BF00BF00BF00BF00BF12B105E0012112
:10C98000E4E7026822F010020260002900D062B6DB
:10C9900010BD20BF10BD000010ED00E070B50E4CC2
:10C9A0006078002817D120780025012806D10220C0
:10C9B0002070A06810B1A0688047A5602078032887
:10C9C00009D12570A068002805D0606840698047BB
:10C9D000A0688047A56070BD5800002010B5084CC5
:10C9E0002078022802D02078032802D1606880686D
:10C9F000804700206070BDE81040FFF7CFBF000007
:10CA00005800002002480078002800D0012070471C
:10CA10005800002038B50446052804D34FF4897126
:10CA20006820FFF765FEFFF7B9FF0E4D0120687023
:10CA30002878022815D16868C168204688470A49C5
:10CA400001EB44025278824201D2012001E011F848
:10CA500014008DF800008DF8014068680168684690
:10CA6000884738BD58000020002D002005490A786D
:10CA7000022A04D00A78032A01D0002070474968AE
:10CA8000096908475800002010B558B108490A78CC
:10CA9000022A02D00A78032A09D149684968BDE808
:10CAA0001040084740F227116820FFF721FE10BD13
:10CAB0005800002005480178022904D00178032994
:10CAC00001D000207047406880690047580000206E
:10CAD000AF110300CB110300B9110300C51103000E
:10CAE000B3110300AD110300AB110300D11103001A
:10CAF000BF110300A51103009D110300A111030044
:10CB00009711030001480068006800476800002092
:10CB1000014800680069004768000020014A126867
:10CB2000926810476800002001480068C06800470C
:10CB300068000020014A126852681047680000200F
:10CB400001490968096A084768000020014800781F
:10CB500070470000FE0300201FB5174CA079022883
:10CB600000D202208DF801006079032800D2032052
:10CB70008DF800002079ADF80400E078ADF80200EF
:10CB8000684610F0E1FF08B1AE2110E0A068029005
:10CB900002A810F0F1FF08B1B22108E007480068D0
:10CBA000039003A818F0CAF9002803D0B621032087
:10CBB00000F0CEF81FBD0000780000209CCE0100E0
:10CBC00010B528B11422044914F00BFA002010BD4E
:10CBD0006FF0150010BD0000CECE010070B56FF0F3
:10CBE0002C05B0BB1D4CA07808B1A81170BD21B3B5
:10CBF0006FF01500002AF9D008292AD2DFE801F0E9
:10CC00002904070A0E11141E1078207318E01078FA
:10CC1000607315E01068C4F80F0011E010686061DF
:10CC20000EE01078A0730BE0217911B11178022980
:10CC3000DCD30A4910780C31087301E01088608356
:10CC4000064901220C31002014F0C4FAB0F5803FEF
:10CC500001DB284670BD0121E17070BD6C00002031
:10CC600038B50D46040020D0FDB100F065F9F8B1EB
:10CC70002046FFF7EFFD104C002204F10C0120705C
:10CC8000284614F0A7FA19F09BF80021207811F03B
:10CC9000C7FB60788DF80000684618F03DF9FFF793
:10CCA0005BFF0120A070002038BD6FF0150038BD7B
:10CCB0004FF0FF3038BD00006C00002070B505005B
:10CCC0000BD0FFF76DFD4FF0FF3420B1FFF72CFCC8
:10CCD000B0F5FA7F04D9204670BD6FF0150070BD25
:10CCE0000022164B114600BF33F82140844203D383
:10CCF00003EB8100827803E0491CC9B20C29F3D30D
:10CD00000F4C10486270A56000F04CFA0020A07033
:10CD1000E0702071EFF3108472B60B486FF00C01D5
:10CD200000F0DEFD094800F09FFE18B1C421032089
:10CD300000F00EF804B962B6002070BD9ECE01006E
:10CD40006C00002059CB010000C0004065CF0100FD
:10CD50000EB572B6154A9568D5B1002203466E46E7
:10CD60000A2403E0B0FBF4F0521CD2B20028F9D13F
:10CD7000B05409E0B3FBF4F004FB1030B3FBF4F360
:10CD8000521ED2B23030B054002AF3D13046A847F8
:10CD9000BFF34F8F06480168064A01F4E061114372
:10CDA0000160BFF34F8F00BFFDE700006C00002063
:10CDB0000CED00E00400FA05064810B5C178807853
:10CDC000014302D04FF0FF3010BD10F003FF0020F0
:10CDD00010BD00006C000020064810B5C1788078B6
:10CDE000014302D04FF0FF3010BD11F047FB00208F
:10CDF00010BD00006C000020074810B5C178827893
:10CE0000114302D04FF0FF3010BD0121017111F02C
:10CE100047FB002010BD00006C000020064810B544
:10CE2000C1788078014302D04FF0FF3010BD18F078
:10CE30001CFA002010BD00006C000020064810B550
:10CE4000C1788078014302D04FF0FF3010BD18F058
:10CE500016FA002010BD00006C000020064810B536
:10CE6000C1788078014302D04FF0FF3010BD11F03F
:10CE700029FB002010BD00006C000020064810B502
:10CE8000C1788078014302D04FF0FF3010BD11F01F
:10CE900033FB002010BD00006C00002001000100E9
:10CEA0000B0002000A00050009000A000800140037
:10CEB00007001E000600320005004B00040064005D
:10CEC000030096000200FA000100F40100003F4751
:10CED000708E81954E869DD3A29588F6300A7F5339
:10CEE00049FD0000054A10B5526812B1BDE8104076
:10CEF000104783210420FFF72BFF0000F8220020B9
:10CF0000054A10B5126812B1BDE8104010477D21E6
:10CF10000420FFF71DFF0000F8220020054A10B58D
:10CF2000926812B1BDE81040104789210420FFF734
:10CF30000FFF0000F82200200548016829B1416870
:10CF400019B1806808B101207047002070470000C7
:10CF5000F822002002490DC881E80D00002070472A
:10CF6000F8220020F8B5124C0026256811E0009840
:10CF7000022802D003280CD106E0206810B100205E
:10CF8000266005E028210CE0206868B101202660B9
:10CF9000A847684600F03AFD0028E8D0052805D0EB
:10CFA00035210420FFF7D4FE2D21FAE7F8BD00005B
:10CFB000880000207CB51F4C0546207840B1A2783F
:10CFC000611C2846921C14F00CF80020207021E00F
:10CFD000194810F0D1FE00281DD0174C20781428D5
:10CFE00004D10A213E2000F029F818B120780A283F
:10CFF00005D009E01049284614F014FC0AE0052188
:10D000003E2000F01BF838B10B49284614F0CCF94B
:10D01000002800D001207CBDA088ADF8000001A947
:10D02000684614F053FD0028F5D098210820FFF73A
:10D030008FFE0000242400200423002070B50C463D
:10D04000054600F04BF8002802D03E2D01D001200B
:10D0500070BD122C06D106480178022902D0407812
:10D060000028F5D02046BDE8704000F053B800001D
:10D07000FF0300200149487070470000FF030020B3
:10D0800070B50A7882703AB3012A25D81323037049
:10D0900000230AE001EB430400EB4305A678EE70A1
:10D0A0006488240A5B1C2C71DBB29342F2D3002308
:10D0B0000BE000BF01EB430500EB43042E796671E2
:10D0C000AD882D0A5B1CA571DBB29342F2D301211E
:10D0D00001EB8200C0B270BD002070BD01210C4A7E
:10D0E00040280CD2202803D8401E8140106802E05E
:10D0F000213881405068014207D100207047FF2845
:10D1000003D0403881409068F5E701207047000067
:10D110008C0000200121401E81400448C06801426B
:10D1200001D0012070470020704700008C000020D3
:10D1300001490068C86070478C00002004490268FB
:10D14000406842F48C220A60024A104348607047EB
:10D150008C000020F8074002014900688860704791
:10D160008C00002005484FF0FF310160C90C416080
:10D17000002181601F21C160704700008C000020E9
:10D1800010B5FFF7EFFF0020FFF774FF18F047F826
:10D1900004460348006800B18047204610BD0000E7
:10D1A0009C00002001490860704700009C0000209E
:10D1B000022101804180002101713F21417147F22C
:10D1C0004701C18001498160002070478E81954EE2
:10D1D00010B5032804D340F26B111720FFF7B8FDF8
:10D1E0000149085C10BD000028250020F8B505465F
:10D1F000CC180698FF2C02D940F2371112E09A425F
:10D2000002D94FF49C710DE0E4B20095844200D243
:10D21000044655B10026EA1C22F00302AA4206D0B9
:10D2200040F23F111720FFF793FD0126F3E7134F5C
:10D230003B707970B8703146684600F001F9002102
:10D240008C460098C01C20F0030000905EB907EBEC
:10D2500081031861002004E01A6942F820C0401CD4
:10D26000C0B2A042F8D30098491C00EB8400C9B2B8
:10D2700000900329E5D3401BF8BD000028250020BD
:10D2800070B5044615F057F808B1102070BD257828
:10D2900000F012F902460C48618800EB85000EE0B0
:10D2A000036953F8213043B14A1C6280A1800069B0
:10D2B00050F82100A060002070BD491C89B2914245
:10D2C000EED36180052070BD282500202DE9F041B6
:10D2D000074611B1002038B901E00120FBE7012920
:10D2E00002D0002060B901E00120FBE7022907D04D
:10D2F000002000281FD000241248012902D002E09B
:10D300000120F6E7047800234FF6FF7600EB810C4E
:10D3100010F801E008E01819DCF8105080B255F858
:10D32000205025B15B1C9BB29E45F4D83046388016
:10D33000B04202D10020BDE8F081BDE8F04100F02C
:10D3400035B80000282500202DE9F0410746A0F55A
:10D350007F400C4643F20206FF3820D0032C02D354
:10D360000720BDE8F081384600F05AF8050016D0D5
:10D370000C48294650F82420384690470A48002196
:10D3800000EB8406306940F82710204600F08AF848
:10D3900002462946706814F017FF0020E1E7304686
:10D3A000DFE70000E4D40100282500202DE9F0414A
:10D3B00090460E46074614F065FF48B1164800EB4C
:10D3C0008604206950F8270028B140F2091115E0C1
:10D3D0004FF4847112E0606800281AD0304600F0E3
:10D3E00061F80146606814F0A1FE050010D02069C4
:10D3F000032E40F8275004D34FF48A711720FFF70B
:10D40000A7FC06484246294650F826303846984739
:10D410002846BDE8F081000028250020D8D401006E
:10D4200070B50C46054614F02DFF002805D00348C2
:10D4300000EB8400006950F8250070BD282500200D
:10D440002DE9F843164F8846054600242868C01C7D
:10D4500020F003002860204600F024F8395D4143A5
:10D46000B8F1000F01D0002000E02868009018B14A
:10D4700000261EB1002002E00126FAE7684614F0FB
:10D4800082FE1EB907EB8401009A4A602968641C79
:10D490000844E4B22860032CD8D3BDE8F883000028
:10D4A00028250020034931F810004FF6FC71C01CFC
:10D4B00008407047D0D40100044801784278807851
:10D4C0001144C9B2814200D3084670472825002084
:10D4D000E0012002240100009922030099220300A8
:10D4E000992203009541030041410300BD3303002D
:10D4F0002DE9FF4F264C804681B020689A4693461E
:10D5000058B1027A424503D9416851F8280040B128
:10D5100043F2020005B0BDE8F08FA5211820FFF707
:10D5200017FC1946029814F0CFFE87B258460E99A0
:10D5300014F0C1FE86B2B819001D85B22068A1465C
:10D540002946006814F0F2FD04001FD06580268093
:10D550000E98251D009031465A460123284614F0A6
:10D560003FFD2088394628440123029ACDF800A0C7
:10D5700014F036FD20884119284614F062FDD9F8D0
:10D5800000004168002041F82840C3E70420C1E7BB
:10D59000A000002070B5144C23688BB1197A814229
:10D5A00012D95A6852F8201071B1002542F8205063
:10D5B0004A88186814F008FE216800200A7A0CE0F6
:10D5C000C8211820FFF7C4FB43F2020070BD4B686E
:10D5D00053F8203033B9401CC0B28242F7D80868F3
:10D5E00014F0E7FD002070BDA00000202DE9F041FF
:10D5F0000D46040090464FF0000609D00027E01CBD
:10D6000020F00300A04205D086211820FFF7A0FBE0
:10D610000127F4E7CDB11146002014F0B4FD0C3021
:10D6200000EB85068FB90A4F04F10C00AA003C609C
:10D630002572606000EB850020600021606813F0B7
:10D640004AFD4146386814F09EFD3046BDE8F08141
:10D65000A000002070B5084D286800280AD00024DA
:10D6600004E02046FFF796FF641CE4B22868007AC5
:10D67000A042F6D870BD0000A0000020094910B5F6
:10D6800002460968002049B10B7A934205D94968DE
:10D6900051F82210002900D0081D10BDEE211820DD
:10D6A000FFF756FBA00000200A4910B502460968A2
:10D6B000002059B10B7A934207D9496851F82210DA
:10D6C000002902D031F8040B084410BDFC211820B9
:10D6D000FFF73EFBA000002070B5064609480C4647
:10D6E00001880AB14D0800E08D082946206814F031
:10D6F0001DFD0021227965F31F41521C2271C6E9EC
:10D70000000170BDA40000202DE9F84F89460600F5
:10D710000AD00027F11C002021F00301B14205D0FE
:10D720002E210920FFF714FB0127F3E71D4900EB29
:10D73000C90507B94E601F2A04D84FF6FF7000EAEA
:10D74000820007E07C20B0EB420F01D2500000E0E5
:10D750007C2080B24FF6FC72C01C10400024088070
:10D76000A246884617E0701900900FB1002000E033
:10D770006846B8F8001014F006FD014647B9D8F81D
:10D78000040000EBC40383F804A0009A40F834209E
:10D79000641C0D44E4B24C45E5D3ED1D25F00700B3
:10D7A000BDE8F88FA4000020064910B54A6802EBD6
:10D7B000C004002020710988204614F0E4FC2046B3
:10D7C00010BD0000A4000020064800887C2801D875
:10D7D00080087047B0F5FF7F01D240087047FF20F6
:10D7E00070470000A4000020094910B507480860F0
:10D7F000084B112003EBC0040022C4F81025C4F824
:10D800001425401CC0B21428F4D310BD0000FEFF44
:10D8100008F5014000F0014070B5202400210123EB
:10D8200020FA01F2D20720D04AB2002A10DB00BF52
:10D830004FEA52164FEA860602F01F0506F1E0266F
:10D8400003FA05F5C6F88051BFF34F8FBFF36F8F12
:10D850000BDB02F01F054FEA52124FEA820202F17F
:10D86000E02203FA05F5C2F8805201F10101A1425C
:10D87000D6D370BD70B542004FF0000101D5144AF7
:10D880001160C0F38032C0F3C0339A4203D06421E8
:10D890001B20FFF75DFA10F4404F14D00D4A012011
:10D8A0005060831EC2F808330B4A9060C2F8001221
:10D8B000C2F80833094C2160251D28609060C2F829
:10D8C000083321602860BDE87040FFF78DBF00007D
:10D8D00004E5014000E0004000F0004000F5004099
:10D8E00070B50A4C0D462060FFF7C4FF2068FFF7B3
:10D8F00093FF00F077F8FFF777FF14F011FD28464B
:10D9000000F0AAF8BDE8704000F0C2B8AC000020FA
:10D910002DE9FC5F2F4E83463068019001272E4889
:10D9200013F0B6FADFF8B08020B9002708F1010043
:10D9300013F0C5FA294C00254FF00309012060605F
:10D94000C4F80051C4F80451C6F800B02060DFF8F4
:10D9500090A017E0DAF80000C00613D50E2014F0EE
:10D96000D0FCEFF31080009072B6C4F80493D4F8A2
:10D97000000120B9D4F8040108B9FEF7DFFF0098D0
:10D9800000B962B6D4F8000118B9D4F8040100282F
:10D99000E0D0D4F804010028D0D137B1019830602C
:10D9A00008F1010013F074FA11E008F1010013F01E
:10D9B0006FFA0028BAD1C4F80893C4F80451C4F827
:10D9C00000510E2014F09DFC034813F078FA00205B
:10D9D000BDE8FC9F04E500400104002000E0004099
:10D9E00010ED00E010B5084813F065FA08B12421E5
:10D9F00006E00548401C13F05EFA002803D02821F9
:10DA00001D20FFF7A5F910BD0104002070B51149D4
:10DA10000A68EAB100231D4601244A68521C4A6084
:10DA20000C2A00D34D600E7904FA06F20E681642F5
:10DA30000BD0EFF3108372B60C6894430C6003B9FB
:10DA400062B649680160002070BD5B1C0C2BE4D3FA
:10DA5000052070BDB0000020024800210160416037
:10DA600070470000B000002010B5084C617809B183
:10DA70000F2010BDFEF7EEFE2070FF2801D0002021
:10DA800010BD76211F20FFF763F90000B8000020C9
:10DA90000149002048707047B800002005498A8C71
:10DAA000824218BF7047002081F822004FF6FF70B5
:10DAB00088847047D02C00200648074A818C528801
:10DAC000914205D190F8220000281CBF0020704729
:10DAD00001207047D02C0020EC0300200149488031
